:020000040800F2
:10000000000002205515000809120008111200080E
:10001000251200082D12000835120008000000000B
:100020000000000000000000000000003D12000879
:100030004B12000800000000591200086712000867
:10004000A5150008A5150008A5150008A5150008A8
:10005000A5150008A5150008A5150008A515000898
:10006000A5150008A5150008A5150008A515000888
:10007000A5150008A5150008A5150008A515000878
:10008000A5150008A5150008A5150008A515000868
:10009000A5150008A5150008A5150008A515000858
:1000A000A5150008A5150008A5150008A515000848
:1000B000A5150008A5150008A5150008A515000838
:1000C000A5150008A5150008A5150008A515000828
:1000D000A5150008A5150008A5150008A515000818
:1000E000A5150008A5150008A5150008A515000808
:1000F000A5150008A5150008A5150008A5150008F8
:10010000A5150008A5150008A5150008A5150008E7
:10011000A5150008A5150008A5150008A5150008D7
:10012000A5150008A5150008A5150008A5150008C7
:10013000A5150008A5150008A5150008A5150008B7
:10014000A5150008A5150008A5150008A5150008A7
:10015000A5150008A5150008A5150008A515000897
:10016000A5150008A5150008A5150008A515000887
:10017000A5150008A5150008A51500080000000039
:08018000A5150008A5150008F3
:1001900010B5054C237833B9044B13B10448AFF3C1
:1001A00000800123237010BDA40000200000000087
:1001B000286E000808B5034B1BB103490348AFF391
:1001C000008008BD00000000A8000020286E000884
:1001D00001F0FF01102A2BDB10F0070F08D010F8F8
:1001E000013B013A8B422DD010F0070F42B3F6D1FC
:1001F000F0B441EA012141EA014122F007047FF015
:1002000000070023F0E80256083C85EA010586EA6B
:10021000010685FA47F5A3FA87F586FA47F6A5FAA7
:1002200087F68EB9EED1F0BC01F0FF0102F00702B3
:1002300032B110F8013B013A83EA010313B1F8D15E
:100240000020704701387047002D06BF354603383F
:10025000073815F0010F07D1013015F4807F02BF78
:10026000013015F4C03F0130F0BC0138704700BFC9
:1002700053B94AB9002908BF00281CBF4FF0FF310D
:100280004FF0FF3000F088B9ADF1080C6DE904CEF5
:1002900000F006F8DDF804E0DDE9022304B0704761
:1002A0002DE9F047089D8E4604468846002B4AD12A
:1002B0008A42174662D9B2FA82F64EB1C6F12003DD
:1002C00001FA06F820FA03F3B74043EA0808B440FD
:1002D0004FEA174E1FFA87FCB8FBFEF1230C0EFB0A
:1002E000118843EA084301FB0CF29A4209D9FB1832
:1002F00001F1FF3080F0EA809A4240F2E780023953
:100300003B449A1AA3B2B2FBFEF00EFB102243EA62
:10031000024300FB0CFC9C4509D9FB1800F1FF329D
:1003200080F0D6809C4540F2D3803B44023840EABE
:100330000140A3EB0C0300211DB1F3400022C5E9ED
:100340000032BDE8F0878B4205D90DB1C5E9000147
:1003500000210846F5E7B3FA83F1002946D1734539
:1003600002D3824200F20581841A6EEB030201205F
:100370009046002DE5D0C5E90048E2E7002A00F0EC
:100380009080B2FA82F6002E40F0A4808A1A030C04
:100390004FEA174E80B2BCB20121B2FBFEFC0EFB4D
:1003A0001C2243EA024304FB0CF29A4207D9FB18D1
:1003B0000CF1FF3802D29A4200F2E080C4469B1A48
:1003C000B3FBFEF20EFB123340EA034302FB04F4DC
:1003D0009C4207D9FB1802F1FF3002D29C4200F286
:1003E000CA8002461B1B42EA0C40A5E7C1F1200669
:1003F0008B4022FA06F71F430EFA01F420FA06F3A7
:100400002EFA06FE4FEA1749234300FA01F81FFAB5
:1004100087FCBEFBF9F01C0C09FB10EE44EA0E440D
:1004200000FB0CFEA64502FA01F209D93C1900F1C5
:10043000FF3A80F09C80A64540F2998002383C4407
:10044000A4EB0E041FFA83FEB4FBF9F309FB13447B
:100450004EEA044403FB0CFCA44508D93C1903F103
:10046000FF3E80F08280A4457FD9023B3C4443EAB2
:100470000040A4EB0C04A0FB02EC64457346E1468B
:1004800062D35FD05DB1B8EB030264EB090404FAF8
:1004900006F622FA01F31E43CC40C5E900640021B0
:1004A0004FE7B1FBF2FC010C41EA0E4180B240EA99
:1004B00001423B4638463C46B846BE462026B1FB84
:1004C000F7F1A2EB080241EA0C4166E7014618E7A2
:1004D00010462CE7C6F120022EFA02F3B740B140D5
:1004E00020FA02F24FEA174E0A43B3FBFEF8BCB201
:1004F0000EFB1833110C41EA034108FB04F9B0402C
:1005000089454FEA104380B23ED9791808F1FF3C83
:1005100001D289451FD8A1EB0901B1FBFEF909FB06
:1005200004F80EFB191192B242EA0142424529D267
:10053000BA1809F1FF31C4D24245C2D2A9F1020171
:100540003A44BEE7F0459DD2BEEB02036CEB070CCC
:100550000138E14696E7A7EB09094944A8F1020CE6
:10056000B1FBFEF909FB04F8DBE773467FE7504671
:1005700066E70846FDE63B44023A33E7ACF1020C7D
:100580003B441CE749469CE7A1EB0901C446B1FB8B
:10059000FEF909FB04F8C4E7704700BF80B5ADF56C
:1005A0000A7D00AF07F50A73A3F5017318464FF4EF
:1005B00000731A46002105F061FF07F50A73A3F5E1
:1005C000027300221A600023C7F8243201224F4927
:1005D0004F4805F045F80346002B03D04D4805F081
:1005E0006DFE8FE04C4B1B68012219464B4805F00D
:1005F0007DF80346002B08D0494805F05FFE012234
:100600004249002005F02CF87CE0464805F056FEF3
:100610000421022000F048F90346002B0BD0424889
:1006200005F04CFE3D4805F0D8FB0122374900207B
:1006300005F016F866E03D4805F040FE01F0B8F917
:1006400001F0E8F93B1D184601F0BAFB07F50A7303
:10065000A3F50973996807F50A73A3F509735A6836
:1006600007F50A73A3F509731B68314805F0BEFD51
:1006700001F0ECF901F0BEF929E007F50A73A3F5E2
:1006800002731B681A46D7F824122A4805F0AEFDFB
:10069000294AD7F82432D01807F50A73A3F5027354
:1006A0001A6807F12403194600F0B2F80346002B3C
:1006B00003D0224805F002FE1CE007F50A73A3F5FB
:1006C00002731B68D7F824221344C7F8243207F1B9
:1006D000200307F124014FF40072104805F0C0F91F
:1006E0000346002B06D107F50A73A3F502731B68B6
:1006F000002BC2D1094805F070FB012203490020FC
:1007000004F0AEFF07F50A77BD4680BD4C6E0008C9
:10071000C0000020506E000800000020F002002001
:10072000606E0008746E0008886E0008A06E0008F5
:10073000B46E0008DC6E000800800008006F00083E
:1007400080B483B000AF0346FB71FB79002B01D16D
:10075000002300E0012318460C37BD465DF8047BFA
:10076000704780B582B000AF0346FB71FB79002B68
:1007700003D100F021FC034600E0012318460837AE
:10078000BD4680BD80B584B000AFB9607A603B6083
:100790000346FB73FB7B002B06D13A687968B86887
:1007A00000F016FC034600E0042318461037BD464F
:1007B00080BD80B584B000AFB9607A603B6003460D
:1007C000FB73FB7B002B06D13A687968B86800F0B0
:1007D00023FC034600E0042318461037BD4680BDC5
:1007E00080B582B000AF03463A60FB710B46BB7127
:1007F000FB79002B06D1BB793968184600F030FC34
:10080000034600E0042318460837BD4680BD0000BB
:10081000B0B588B000AFF860B9607A6072B600BF5A
:100820001F4BF322DA6001F0C3F80023FB612AE0DA
:100830004FF0FF337B610423BB61BA68FB6913444B
:100840001B687B617B6900221C46154622462B46AD
:10085000F968022001F05AF80346002B0DD001F090
:1008600005F903461A46F9680E4805F0BFFC01F089
:10087000C1F862B600BF01230EE0FB680433FB60E1
:10088000FB690433FB61FA697B689A42D0D301F0BB
:10089000B1F862B600BF002318462037BD46B0BD90
:1008A000003C0240186F000880B58AB000AF786045
:1008B000396000233B617B68BB613B68FB610223BD
:1008C0003B62104BF322DA6001F072F807F10C0280
:1008D00007F110031146184601F004FA034687F8A1
:1008E000273001F087F897F82730002B04D0FB68F9
:1008F0001946054805F07AFC97F82730184628373E
:10090000BD4680BD003C02404C6F000880B58AB0F7
:1009100000AF07F1140300221A605A609A60DA608F
:100920001A6100233B61274B1B6B264A43F080036F
:100930001363244B1B6B03F080033B613B69002373
:10094000FB60204B1B6B1F4A43F0010313631D4BDD
:100950001B6B03F00103FB60FB680023BB60194BBA
:100960001B6B184A43F008031363164B1B6B03F011
:100970000803BB60BB6800237B60124B1B6B114AF2
:1009800043F0020313630F4B1B6B03F002037B6006
:100990007B6800224FF480510B4801F0CFFC4FF4EC
:1009A00080537B610123BB610023FB6100233B6219
:1009B00007F114031946044801F024FB00BF28374F
:1009C000BD4680BD00380240000C024080B500AF3B
:1009D00000F0EAFD00F060F8FFF798FF00F028FD56
:1009E00000F0FAF800F06AFB00F0D0F903F02AF901
:1009F000234B1B681B681946224805F0F7FB224B66
:100A00001B689B68184605F01BFB4FF47A7000F0DA
:100A100073FE1B4B1B681B68B3F1FF3F18D11B48CB
:100A200005F04CFCFFF7BAFD154B1B681B68B3F1D2
:100A3000FF3F1AD0124B1B681968114B1B68043317
:100A40001B681A46124805F0D1FB00F091F80CE043
:100A50000B4B1B6819680A4B1B6804331B681A464A
:100A60000B4805F0C3FB00F083F84FF480510948B0
:100A700001F07DFC642000F03FFE00BFF5E700BF01
:100A8000CC700008F46F00085400002020700008AB
:100A900030700008000C024080B594B000AF07F140
:100AA000200330220021184605F0E8FC07F10C0372
:100AB00000221A605A609A60DA601A610023BB60F3
:100AC000294B1B6C284A43F080531364264B1B6C44
:100AD00003F08053BB60BB6800237B60234B1B6823
:100AE000224A43F480431360204B1B6803F4804385
:100AF0007B607B6809233B624FF480337B62012378
:100B00007B630223BB634FF48003FB6304233B64DA
:100B1000A0237B640223BB640423FB6407F120034E
:100B2000184601F03FFC0346002B01D000F04EF8C0
:100B30000F23FB6002233B6100237B614FF4A05332
:100B4000BB614FF48053FB6107F10C03052118468C
:100B500001F0A0FE0346002B01D000F037F800BFE3
:100B60005037BD4680BD00BF0038024000700040D5
:100B700080B584B000AF124B1B681B68FB60104B44
:100B80001B6804331B68BB600E4805F097FB00F040
:100B90002DFD72B600BF0C4A094B1B689360FB68C1
:100BA0007B607B6883F3088800BFBB6843F0010368
:100BB000BB60BB68984700BF1037BD4680BD00BF13
:100BC000CC7000085070000800ED00E080B400AF69
:100BD00072B600BF00BFFDE780B500AF0F4B104AF3
:100BE0001A600E4B00225A600C4B7F229A600B4B0E
:100BF000FF22DA60094B00221A61084B00225A6179
:100C0000064B00229A61054802F046F90346002B84
:100C100001D0FFF7DBFF00BF80BD00BF2005002033
:100C20000028004080B586B000AF786007F1080367
:100C300000221A605A609A60DA607B681B680C4A6E
:100C4000934211D10223BB604FF400737B6107F123
:100C50000803184602F03EF80346002B01D0FFF7C8
:100C6000B5FF044B01221A6000BF1837BD4680BD96
:100C7000002800403C0E474280B500AF0022102102
:100C8000024801F05BFB00BF80BD00BF00000240D6
:100C900080B500AF01221021024801F04FFB00BFD8
:100CA00080BD00BF0000024080B586B002AF0346A1
:100CB000FB7107F10F02F91D4FF0FF330093012381
:100CC000034802F076FAFB7B18461037BD4680BD1C
:100CD0004405002080B582B000AFFFF7D9FF0023A4
:100CE0007B6005E0FF20FFF7DFFF7B6801337B605F
:100CF0007B68092BF6DD00BF00BF0837BD4680BD0D
:100D000080B584B000AF03463960FB711346BB71F8
:100D1000FF20FFF7C9FFFFF7AFFFFB791846FFF78A
:100D2000C3FF3B681B0EDBB21846FFF7BDFF3B68F5
:100D30001B0CDBB21846FFF7B7FF3B681B0ADBB2A0
:100D40001846FFF7B1FF3B68DBB21846FFF7ACFF70
:100D5000BB791846FFF7A8FF0023FB600DE0FF20DA
:100D6000FFF7A2FF0346FB7297F90B30002B01DB64
:100D7000FB7A06E0FB680133FB60FB68092BEEDDC4
:100D8000FF2318461037BD4680BD000080B584B0F3
:100D900000AF3C4B00221A70FFF79CFF3A4805F069
:100DA0008DFA952200214020FFF7AAFF0346012B70
:100DB00001D0002362E0354805F080FA87224FF425
:100DC000D5714820FFF79CFF0346FB71FB79012B8F
:100DD0003FD10023FB6005E0FF20FFF765FFFB68C4
:100DE0000133FB60FB68032BF6DD01220021772035
:100DF000FFF786FF01224FF080416920FFF780FF57
:100E00000346002B00D0F0E700BF012200217A202A
:100E1000FFF776FF0346002B2AD10023BB600CE0CE
:100E2000FF20FFF741FF034619463A46BB681344CB
:100E30000A461A70BB680133BB60BB68032BEFDD49
:100E40003B7803F04003002B12D00E4B01221A70A6
:100E50000EE0012200217720FFF752FF012200213E
:100E60006920FFF74DFF0346002B00D0F1E700BFDC
:100E7000FFF70EFFFF20FFF717FF0123184610377B
:100E8000BD4680BD40050020587000086C70000809
:100E900090B585B000AF786039601D4B1B78002B92
:100EA00002D17B685B027B60012279685120FFF7E9
:100EB00027FF0346002B01D0002324E000BFFF20C2
:100EC000FFF7F2FE0346FE2BF9D10023FB600AE098
:100ED000FB683A68D418FF20FFF7E6FE034623704C
:100EE000FB680133FB60FB68B3F5007FF0DBFF209C
:100EF000FFF7DAFEFF20FFF7D7FEFFF7C9FEFF205E
:100F0000FFF7D2FE012318461437BD4690BD00BF3F
:100F10004005002080B584B000AF78603960254B73
:100F20001B78002B02D17B685B027B600122796811
:100F30005820FFF7E5FE0346002B01D0002335E0E3
:100F4000FF20FFF7B1FEFE20FFF7AEFE0023FB609F
:100F500009E0FB683A6813441B781846FFF7A4FEC3
:100F6000FB680133FB60FB68B3F5007FF1DBFF201A
:100F7000FFF79AFEFF20FFF797FEFF20FFF794FE92
:100F80000346FB72FB7A03F01F03052B01D00023FD
:100F90000CE000BFFF20FFF787FE0346002BF9D0CF
:100FA000FFF776FEFF20FFF77FFE0123184610377C
:100FB000BD4680BD4005002080B500AFFFF7E6FECE
:100FC0000346002B0CBF01230023DBB2184680BD73
:100FD00080B586B000AFF860B9607A6000237B61AD
:100FE00011E0BA687B69D0187B695B02FA68134428
:100FF0001946FFF74DFF0346002B01D1012307E0FF
:101000007B6901337B617A697B689A42E9D300236B
:1010100018461837BD4680BD80B586B000AFF86071
:10102000B9607A6000237B6111E0BA687B69D018EF
:101030007B695B02FA6813441946FFF76BFF0346AE
:10104000002B01D1012307E07B6901337B617A69C1
:101050007B689A42E9D3002318461837BD4680BD05
:1010600080B483B000AF03463960FB71FB79032B7A
:101070001DD801A252F823F089100008A31000081F
:101080008D10000899100008002311E03B684FF410
:1010900000721A8000230BE03B6801221A600023D3
:1010A00006E03B684FF400421A60002300E004238E
:1010B00018460C37BD465DF8047B704780B500AF1D
:1010C000174B184A1A60164B4FF482725A60144B31
:1010D00000229A60124B0022DA60114B00221A6142
:1010E0000F4B00225A610E4B4FF480229A610C4B39
:1010F0000022DA610A4B00221A62094B00225A626E
:10110000074B00229A62064B0A22DA62044801F079
:10111000C7FF0346002B01D0FFF758FD00BF80BD7D
:10112000440500200030014080B58AB000AF7860EF
:1011300007F1140300221A605A609A60DA601A619B
:101140007B681B68194A93422BD100233B61184BE3
:101150005B6C174A43F480535364154B5B6C03F488
:1011600080533B613B690023FB60114B1B6B104AB2
:1011700043F0010313630E4B1B6B03F00103FB6091
:10118000FB68F0237B610223BB610023FB61032327
:101190003B6205237B6207F114031946054800F002
:1011A00031FF00BF2837BD4680BD00BF0030014081
:1011B000003802400000024080B483B000AF00233A
:1011C0007B60104B5B6C0F4A43F4804353640D4BC0
:1011D0005B6C03F480437B607B6800233B60094BBE
:1011E0001B6C084A43F080531364064B1B6C03F0DE
:1011F00080533B603B6800BF0C37BD465DF8047B05
:10120000704700BF0038024080B400AF00BFFDE768
:1012100080B500AF024805F051F800BFFDE700BF00
:101220007C70000880B400AF00BFFDE780B400AF61
:1012300000BFFDE780B400AF00BFFDE780B400AFA2
:1012400000BFBD465DF8047B704780B400AF00BFAF
:10125000BD465DF8047B704780B400AF00BFBD465B
:101260005DF8047B704780B500AF00F025FA00BF41
:1012700080BD000080B483B000AF0346FB710F4B0C
:101280001B680E4A43F0807313600D4B1B680C4AB9
:1012900043F00103136000BF4FF060431B6803F08D
:1012A0000103002BF8D04FF06042FB79136000BFC0
:1012B0000C37BD465DF8047B704700BFFCED00E0D5
:1012C000000E00E080B586B000AFF860B9607A60CB
:1012D00000237B610AE0AFF300800146BB685A1C23
:1012E000BA60CAB21A707B6901337B617A697B6824
:1012F0009A42F0DB7B6818461837BD4680BD80B542
:1013000086B000AFF860B9607A6000237B6109E0C5
:10131000BB685A1CBA601B781846FFF7ABFF7B69A5
:1013200001337B617A697B689A42F1DB7B681846FE
:101330001837BD4680BD80B483B000AF78604FF0F1
:10134000FF3318460C37BD465DF8047B704780B408
:1013500083B000AF786039603B684FF400525A6048
:10136000002318460C37BD465DF8047B704780B4F7
:1013700083B000AF7860012318460C37BD465DF896
:10138000047B704780B485B000AFF860B9607A60C4
:10139000002318461437BD465DF8047B70470000F3
:1013A00080B586B000AF7860144A154BD31A7B61C4
:1013B0007B693B61134B1B68002B02D1114B124A16
:1013C0001A60104B1A687B6813443A699A4207D234
:1013D00005F0A2F803460C221A604FF0FF3309E033
:1013E000084B1B68FB60074B1A687B681344054A6F
:1013F0001360FB6818461837BD4680BD0000022008
:10140000000400009C0500207807002080B400AF95
:10141000064BD3F88830054A43F47003C2F888308D
:1014200000BFBD465DF8047B704700BF00ED00E0E3
:1014300080B500AF114B124A1A60104B4FF4E132E5
:101440005A600E4B00229A600C4B0022DA600B4B64
:1014500000221A61094B0C225A61084B00229A6142
:10146000064B0022DA61054802F028F90346002BFA
:1014700001D0FFF7ABFB00BF80BD00BFA00500207F
:101480000010014080B58AB000AF786007F1140306
:1014900000221A605A609A60DA601A617B681B68E1
:1014A000284A93424AD100233B61274B5B6C264A72
:1014B00043F010035364244B5B6C03F010033B6157
:1014C0003B690023FB60204B1B6B1F4A43F0010369
:1014D00013631D4B1B6B03F00103FB60FB680023D0
:1014E000BB60194B1B6B184A43F002031363164B86
:1014F0001B6B03F00203BB60BB684FF480637B612E
:101500000223BB610023FB6103233B6207237B6251
:1015100007F1140319460D4800F074FD40237B6168
:101520000223BB610023FB6103233B6207237B6231
:1015300007F114031946064800F064FD00BF283780
:10154000BD4680BD0010014000380240000002404E
:1015500000040240DFF834D0FFF758FF0C480D4973
:101560000D4A002302E0D458C4500433C4188C42FE
:10157000F9D30A4A0A4C002301E013600432A24264
:10158000FBD304F0CFFFFFF721FA704700000220E1
:1015900000000020A4000020AC710008A40000207E
:1015A00074070020FEE7000080B500AF0E4B1B68FB
:1015B0000D4A43F4007313600B4B1B680A4A43F453
:1015C00080631360084B1B68074A43F48073136001
:1015D000032000F067F90F2000F03EF8FFF7ECFD64
:1015E0000023184680BD00BF003C024080B500AF1C
:1015F000114B124A1A62104B00221A620E4B104A0B
:101600005A620D4B00225A620B4B0E4A1A610A4B6A
:1016100000221A61084BC1225A61074B00225A610D
:10162000054B01229A61044B00229A6100F00CF8EC
:101630000023184680BD00BF00380240FFC9FEF6F7
:1016400033797704FF11602280B400AF00BFBD463C
:101650005DF8047B7047000080B582B000AF786011
:10166000124B1A68124B1B7819464FF47A73B3FB6E
:10167000F1F3B2FBF3F3184600F03BF90346002BFD
:1016800001D001230EE07B680F2B0AD80022796875
:101690004FF0FF3000F011F9064A7B681360002319
:1016A00000E0012318460837BD4680BD0400002035
:1016B0000C0000200800002080B400AF064B1B780F
:1016C0001A46064B1B681344044A136000BFBD460C
:1016D0005DF8047B704700BF0C000020E805002087
:1016E00080B400AF034B1B681846BD465DF8047B11
:1016F000704700BFE805002080B584B000AF786077
:10170000FFF7EEFFB8607B68FB60FB68B3F1FF3F5B
:1017100005D00A4B1B781A46FB681344FB6000BFD8
:10172000FFF7DEFF0246BB68D31AFA689A42F7D881
:1017300000BF00BF1037BD4680BD00BF0C000020B9
:1017400080B485B000AF78607B6803F00703FB606E
:101750000C4BDB68BB60BA684FF6FF031340BB60FD
:10176000FB681A02BB68134343F0BF6343F40033C2
:10177000BB60044ABB68D36000BF1437BD465DF848
:10178000047B704700ED00E080B400AF044BDB68E1
:101790001B0A03F007031846BD465DF8047B70473B
:1017A00000ED00E080B483B000AF03463960FB7108
:1017B00097F90730002B0ADB3B68DAB20C4997F93E
:1017C00007301201D2B20B4483F800230AE03B68D1
:1017D000DAB20849FB7903F00F03043B1201D2B2DD
:1017E0000B441A7600BF0C37BD465DF8047B70478A
:1017F00000E100E000ED00E080B489B000AFF860E7
:10180000B9607A60FB6803F00703FB61FB69C3F111
:101810000703042B28BF0423BB61FB690433062B99
:1018200002D9FB69033B00E000237B614FF0FF32EC
:10183000BB6902FA03F3DA43BB681A407B699A403A
:101840004FF0FF317B6901FA03F3D9437B680B400A
:10185000134318462437BD465DF8047B70470000EB
:1018600080B582B000AF78607B68013BB3F1807FC8
:1018700001D301230FE00A4A7B68013B53600F212B
:101880004FF0FF30FFF78EFF054B00229A60044BAC
:1018900007221A60002318460837BD4680BD00BFE6
:1018A00010E000E080B582B000AF78607868FFF7A4
:1018B00047FF00BF0837BD4680BD80B586B000AF8A
:1018C0000346B9607A60FB7300237B61FFF75CFF1E
:1018D00078617A68B9687869FFF78EFF024697F9F0
:1018E0000F3011461846FFF75DFF00BF1837BD46A1
:1018F00080BD80B582B000AF78607868FFF7B0FF38
:10190000034618460837BD4680BD000080B586B046
:1019100000AFF860B960C7E90023234B1B7E012BA1
:1019200001D102233BE0204B01221A764FF4FA70DA
:1019300000F0A8F80346FB75FB7D002B2BD1FB685C
:10194000002B05D13B781946B86800F053F916E032
:10195000FB68012B05D13B881946B86800F026F9D1
:101960000DE0FB68022B05D13B681946B86800F012
:10197000FBF804E0D7E90023B86800F0C3F84FF49F
:10198000FA7000F07FF80346FB75084B1B69074AA5
:1019900023F001031361044B00221A76FB7D1846E5
:1019A0001837BD4680BD00BF10000020003C02403B
:1019B00080B483B000AF0023FB710B4B1B69002B7D
:1019C0000BDA094B094A5A60074B094A5A60064B21
:1019D0001B69002B01DA0123FB71FB7918460C37D8
:1019E000BD465DF8047B7047003C0240230167451B
:1019F000AB89EFCD80B400AF054B1B69044A43F0BF
:101A00000043136100231846BD465DF8047B704710
:101A1000003C024080B400AF094B5B6903F0010356
:101A2000002B07D0064B074A9A60054B064A9A607E
:101A3000002300E001231846BD465DF8047B704793
:101A4000003C02403B2A19087F6E5D4C80B400AF19
:101A5000054B5B69044A43F00103536100231846B8
:101A6000BD465DF8047B7047003C024080B400AF87
:101A7000034BDB691846BD465DF8047B704700BF29
:101A80001000002080B584B000AF78600023FB60B8
:101A90001A4B0022DA61FFF723FEF86010E07B6842
:101AA000B3F1FF3F0CD07B68002B07D0FFF718FE87
:101AB0000246FB68D31A7A689A4201D2032319E0DE
:101AC0000F4BDB6803F48033002BE8D10C4BDB6851
:101AD00003F00103002B02D0094B0122DA60084B0E
:101AE000DB6803F0F203002B03D000F0A5F801231C
:101AF00000E0002318461037BD4680BD10000020CE
:101B0000003C024080B485B000AFF860C7E9002314
:101B1000144B1B69134A23F440731361114B1B6967
:101B2000104A43F4407313610E4B1B690D4A43F096
:101B300001031361FB683A681A60BFF36F8F00BF3F
:101B4000D7E900014FF000024FF000030A00002324
:101B5000F968043113460B6000BF1437BD465DF8C9
:101B6000047B7047003C024080B483B000AF7860D3
:101B700039600D4B1B690C4A23F4407313610A4B07
:101B80001B69094A43F400731361074B1B69064A3A
:101B900043F0010313617B683A681A6000BF0C3799
:101BA000BD465DF8047B7047003C024080B483B0C2
:101BB00000AF78600B467B800D4B1B690C4A23F409
:101BC000407313610A4B1B69094A43F48073136124
:101BD000074B1B69064A43F0010313617B687A884F
:101BE0001A8000BF0C37BD465DF8047B704700BF0C
:101BF000003C024080B483B000AF78600B46FB70BD
:101C00000C4B1B690B4A23F440731361094B094ABF
:101C10001B691361074B1B69064A43F001031361FB
:101C20007B68FA781A7000BF0C37BD465DF8047BFC
:101C3000704700BF003C024080B400AF274BDB6818
:101C400003F01003002B08D0254BDB6943F0100391
:101C5000234AD361214B1022DA60204BDB6803F06A
:101C60002003002B08D01E4BDB6943F008031C4AFD
:101C7000D3611A4B2022DA60184BDB6803F0400373
:101C8000002B08D0164BDB6943F00403144AD361E0
:101C9000124B4022DA60114BDB6803F08003002B0B
:101CA00008D00F4BDB6943F002030D4AD3610B4BA5
:101CB0008022DA60094BDB6803F00203002B08D0B6
:101CC000074BDB6943F02003054AD361034B022233
:101CD000DA6000BFBD465DF8047B7047003C0240FF
:101CE0001000002080B584B000AF78603960002318
:101CF000BB60314B1B7E012B01D1022358E02E4BE0
:101D000001221A764CF25030FFF7BCFE0346FB73FB
:101D1000FB7B002B48D13B684FF0FF321A607B6899
:101D20001B68012B15D17B681B69DAB27B685B6885
:101D30001946104600F068F84CF25030FFF7A2FE4A
:101D40000346FB731D4B1B691C4A23F004031361FC
:101D500028E07B689B68BB601CE07B681B69DBB28A
:101D60001946B86800F074F84CF25030FFF78AFE5C
:101D70000346FB73114B1B69104A23F07A0313616E
:101D8000FB7B002B03D03B68BA681A600AE0BB6893
:101D90000133BB607B68DA687B689B681344BA6870
:101DA0009A42DAD300F0E8F8034B00221A76FB7B64
:101DB00018461037BD4680BD10000020003C024090
:101DC00080B582B000AF78607B680F221A6000F0A7
:101DD00097F803461A467B689A6000F09DF8034620
:101DE0001A467B681A6100F07BF803461A467B6846
:101DF0001A7600F0B1F803461A467B685A6100BFB4
:101E00000837BD4680BD000080B483B000AF0346F4
:101E10003960FB710D4B1B690C4A23F4407313614D
:101E20000A4B1B69094A43F004031361074B1A6903
:101E3000FB791B021343054A43F48033136100BF4F
:101E40000C37BD465DF8047B704700BF003C024084
:101E500080B485B000AF78600B46FB700023FB6058
:101E6000FB78002B02D10023FB6010E0FB78012BF4
:101E700003D14FF48073FB6009E0FB78022B03D1A0
:101E80004FF40073FB6002E04FF44073FB60134BB0
:101E90001B69124A23F440731361104B1A690F49EE
:101EA000FB6813430B610D4B1B690C4A23F078034D
:101EB00013610A4B1A697B68DB001343074A43F03E
:101EC00002031361054B1B69044A43F48033136119
:101ED00000BF1437BD465DF8047B7047003C0240EC
:101EE00080B400AF054B5B69DBB223F01F03DBB2AC
:101EF0001846BD465DF8047B704700BF003C0240B9
:101F000080B400AF034B1B889BB21846BD465DF8FA
:101F1000047B7047163C024080B483B000AFAA2314
:101F2000FB710C4B1B78DBB2CC2B02D1CC23FB71A9
:101F300009E0084B1B78DBB2AA2B02D1AA23FB7164
:101F400001E05523FB71FB7918460C37BD465DF85F
:101F5000047B7047153C024080B400AF054B1B78F2
:101F6000DBB203F00C03DBB21846BD465DF8047B20
:101F7000704700BF143C024080B400AF204B1B6888
:101F800003F40073002B17D01D4B1B681C4A23F46D
:101F9000007313601A4B1B68194A43F40063136003
:101FA000174B1B68164A23F400631360144B1B681D
:101FB000134A43F400731360114B1B6803F48063EE
:101FC000002B17D00E4B1B680D4A23F4806313605F
:101FD0000B4B1B680A4A43F480531360084B1B6881
:101FE000074A23F480531360054B1B68044A43F4EB
:101FF0008063136000BFBD465DF8047B704700BF7F
:10200000003C024080B489B000AF786039600023A2
:102010007B6100233B610023BB610023FB616BE11B
:102020000122FB6902FA03F37B613B681B687A6952
:1020300013403B613A697B699A4240F05A813B68A0
:102040005B6803F00303012B05D03B685B6803F07A
:102050000303022B30D17B689B68BB61FB695B008B
:10206000032202FA03F3DB43BA691340BB613B6806
:10207000DA68FB695B0002FA03F3BA691343BB61D8
:102080007B68BA699A607B685B68BB610122FB6907
:1020900002FA03F3DB43BA691340BB613B685B6838
:1020A0001B0903F00102FB6902FA03F3BA69134347
:1020B000BB617B68BA695A603B685B6803F00303E5
:1020C000032B17D07B68DB68BB61FB695B000322D5
:1020D00002FA03F3DB43BA691340BB613B689A68B9
:1020E000FB695B0002FA03F3BA691343BB617B68C7
:1020F000BA69DA603B685B6803F00303022B23D103
:10210000FB69DA087B68083253F82230BB61FB694F
:1021100003F007039B000F2202FA03F3DB43BA69C3
:102120001340BB613B681A69FB6903F007039B001E
:1021300002FA03F3BA691343BB61FB69DA087B68EF
:102140000832B96943F822107B681B68BB61FB69E0
:102150005B00032202FA03F3DB43BA691340BB615D
:102160003B685B6803F00302FB695B0002FA03F360
:10217000BA691343BB617B68BA691A603B685B68E4
:1021800003F44033002B00F0B4800023FB60604B6D
:102190005B6C5F4A43F4804353645D4B5B6C03F4B8
:1021A0008043FB60FB685B4AFB699B08023352F883
:1021B0002330BB61FB6903F003039B000F2202FA8B
:1021C00003F3DB43BA691340BB617B68524A934215
:1021D0002BD07B68514A934225D07B68504A93426A
:1021E0001FD07B684F4A934219D07B684E4A934276
:1021F00013D07B684D4A93420DD07B684C4A934282
:1022000007D07B684B4A934201D107230EE0082395
:102210000CE006230AE0052308E0042306E003237C
:1022200004E0022302E0012300E00023FA6902F047
:10223000030292009340BA691343BB613549FB69BD
:102240009B080233BA6941F823203B4B9B68BB6172
:102250003B69DB43BA691340BB613B685B6803F4CD
:102260008013002B03D0BA693B691343BB61324A28
:10227000BB699360304BDB68BB613B69DB43BA6988
:102280001340BB613B685B6803F40013002B03D071
:10229000BA693B691343BB61274ABB69D360264BCC
:1022A0005B68BB613B69DB43BA691340BB613B6858
:1022B0005B6803F40033002B03D0BA693B69134316
:1022C000BB611D4ABB6953601B4B1B68BB613B690B
:1022D000DB43BA691340BB613B685B6803F480333E
:1022E000002B03D0BA693B691343BB61124ABB6937
:1022F0001360FB690133FB61FB690F2B7FF690AE26
:1023000000BF00BF2437BD465DF8047B704700BFA7
:102310000038024000380140000002400004024042
:1023200000080240000C024000100240001402406D
:1023300000180240001C0240003C014080B483B001
:1023400000AF78600B467B8013467B707B78002B58
:1023500003D07A887B689A6103E07B881A047B68E3
:102360009A6100BF0C37BD465DF8047B704780B4AE
:1023700085B000AF78600B467B807B685B69FB6053
:102380007A88FB6813401A04FB68D9437B880B40AA
:102390001A437B689A6100BF1437BD465DF8047B21
:1023A0007047000080B586B000AF78607B68002B76
:1023B00001D1012367E27B681B6803F00103002B56
:1023C00075D0884B9B6803F00C03042B0CD0854B15
:1023D0009B6803F00C03082B12D1824B5B6803F45B
:1023E0008003B3F5800F0BD17E4B1B6803F40033E1
:1023F000002B5BD07B685B68002B57D1012342E246
:102400007B685B68B3F5803F06D1764B1B68754AE5
:1024100043F4803313601DE07B685B68B3F5A02F45
:102420000CD1704B1B686F4A43F4802313606D4BD3
:102430001B686C4A43F4803313600BE0694B1B68E4
:10244000684A23F480331360664B1B68654A23F4A3
:10245000802313607B685B68002B13D0FFF740F983
:10246000386108E0FFF73CF902463B69D31A642B58
:1024700001D9032307E25B4B1B6803F40033002BF5
:10248000F0D014E0FFF72CF9386108E0FFF728F9E5
:1024900002463B69D31A642B01D90323F3E1514B64
:1024A0001B6803F40033002BF0D100E000BF7B6811
:1024B0001B6803F00203002B63D04A4B9B6803F0B8
:1024C0000C03002B0BD0474B9B6803F00C03082B2D
:1024D0001CD1444B5B6803F48003002B16D1414BA5
:1024E0001B6803F00203002B05D07B68DB68012B1F
:1024F00001D00123C7E13B4B1B6823F0F8027B6846
:102500001B69DB00374913430B603AE07B68DB68EB
:10251000002B20D0344B01221A60FFF7E1F838611C
:1025200008E0FFF7DDF802463B69D31A022B01D918
:102530000323A8E12B4B1B6803F00203002BF0D010
:10254000284B1B6823F0F8027B681B69DB002549D8
:1025500013430B6015E0244B00221A60FFF7C0F80C
:10256000386108E0FFF7BCF802463B69D31A022B3A
:1025700001D9032387E11B4B1B6803F00203002BE7
:10258000F0D17B681B6803F00803002B36D07B6812
:102590005B69002B16D0154B01221A60FFF7A0F8DB
:1025A000386108E0FFF79CF802463B69D31A022B1A
:1025B00001D9032367E10B4B5B6F03F00203002B90
:1025C000F0D01BE0094B00221A60FFF789F8386150
:1025D0000EE0FFF785F802463B69D31A022B07D9B4
:1025E000032350E10038024000004742800E47427A
:1025F000884B5B6F03F00203002BEAD17B681B68FA
:1026000003F00403002B00F097800023FB75814B3F
:102610001B6C03F08053002B0FD10023BB607D4B5C
:102620001B6C7C4A43F0805313647A4B1B6C03F0A1
:102630008053BB60BB680123FB75774B1B6803F4B9
:102640008073002B18D1744B1B68734A43F480735A
:102650001360FFF745F8386108E0FFF741F80246DC
:102660003B69D31A022B01D903230CE16A4B1B6887
:1026700003F48073002BF0D07B689B68012B06D19C
:10268000644B1B6F634A43F0010313671CE07B68D4
:102690009B68052B0CD15F4B1B6F5E4A43F0040314
:1026A00013675C4B1B6F5B4A43F0010313670BE03E
:1026B000584B1B6F574A23F001031367554B1B6F91
:1026C000544A23F0040313677B689B68002B15D0E2
:1026D000FFF706F838610AE0FFF702F802463B69A7
:1026E000D31A41F28832934201D90323CBE0494BFC
:1026F0001B6F03F00203002BEED014E0FEF7F0FF97
:1027000038610AE0FEF7ECFF02463B69D31A41F25A
:102710008832934201D90323B5E03E4B1B6F03F08F
:102720000203002BEED1FB7D012B05D1394B1B6C35
:10273000384A23F0805313647B689B69002B00F0B8
:10274000A180344B9B6803F00C03082B5CD07B68A2
:102750009B69022B41D1314B00221A60FEF7C0FF6A
:10276000386108E0FEF7BCFF02463B69D31A022B32
:1027700001D9032387E0274B1B6803F00073002B6C
:10278000F0D17B68DA697B681B6A1A437B685B6AF5
:102790009B011A437B689B6A5B08013B1B041A433D
:1027A0007B68DB6A1B061B4913434B601B4B0122F2
:1027B0001A60FEF795FF386108E0FEF791FF0246C8
:1027C0003B69D31A022B01D903235CE0114B1B6830
:1027D00003F00073002BF0D054E0104B00221A607D
:1027E000FEF77EFF386108E0FEF77AFF02463B699C
:1027F000D31A022B01D9032345E0064B1B6803F0D3
:102800000073002BF0D13DE07B689B69012B07D161
:10281000012338E000380240007000406000474269
:102820001B4B5B68FB607B689B69012B28D0FB68B6
:1028300003F480027B68DB699A4221D1FB6803F0D4
:102840003F027B681B6A9A421AD1FA6847F6C07346
:1028500013407A68526A9201934211D1FB6803F4E3
:1028600040327B689B6A5B08013B1B049A4207D19C
:10287000FB6803F070627B68DB6A1B069A4201D03A
:10288000012300E0002318461837BD4680BD00BF75
:102890000038024080B584B000AF786039607B6852
:1028A000002B01D10123CCE0684B1B6803F0070328
:1028B0003A689A420CD9654B3A68D2B21A70634BA7
:1028C0001B6803F007033A689A4201D00123B8E07D
:1028D0007B681B6803F00203002B20D07B681B6819
:1028E00003F00403002B05D0594B9B68584A43F46E
:1028F000E05393607B681B6803F00803002B05D04E
:10290000534B9B68524A43F460439360504B9B681F
:1029100023F0F0027B689B684D4913438B607B6812
:102920001B6803F00103002B44D07B685B68012B1C
:1029300007D1474B1B6803F40033002B19D1012347
:102940007FE07B685B68022B03D07B685B68032BAE
:1029500007D13F4B1B6803F00073002B09D1012303
:102960006FE03B4B1B6803F00203002B01D10123F6
:1029700067E0374B9B6823F003027B685B68344950
:1029800013438B60FEF7ACFEF8600AE0FEF7A8FE8A
:102990000246FB68D31A41F28832934201D90323DD
:1029A0004FE02B4B9B6803F00C027B685B689B003D
:1029B0009A42EBD1254B1B6803F007033A689A4211
:1029C0000CD2224B3A68D2B21A70204B1B6803F02B
:1029D00007033A689A4201D0012332E07B681B6802
:1029E00003F00403002B08D0194B9B6823F4E0523A
:1029F0007B68DB68164913438B607B681B6803F0B8
:102A00000803002B09D0124B9B6823F460427B68BB
:102A10001B69DB000E4913438B6000F021F802466E
:102A20000B4B9B681B0903F00F030A49CB5C22FA8E
:102A300003F3094A1360094B1B681846FEF70CFEA6
:102A4000002318461037BD4680BD00BF003C024041
:102A500000380240D0700008040000200800002068
:102A60002DE9B04F94B000AF00237B640023FB64DA
:102A700000233B640023BB64794B9B6803F00C0389
:102A8000082B0DD0082B00F2E180002B02D0042B84
:102A900003D0DBE0734BBB64DBE0734BBB64D8E07B
:102AA0006F4B5B6803F03F037B646D4B5B6803F423
:102AB0008003002B63D06A4B5B689B090022BB63D9
:102AC000FA63BB6BC3F308033B6300237B63D7E963
:102AD0000C4522462B464FF000004FF000015901F3
:102AE00041EAD261500102460B462146511A396132
:102AF000294663EB01037B614FF000024FF00003B6
:102B0000D7E904AB59468B01514643EA91635146DC
:102B10008A015146B2EB0108594663EB01094FF0B7
:102B200000024FF000034FEAC90343EA58734FEA2B
:102B3000C80290469946234618EB0303BB602B4618
:102B400049EB0303FB604FF000024FF00003D7E9AD
:102B5000024529464B02214643EAD15321464A0207
:102B6000104619467B6C0022BB62FA62D7E90A2341
:102B7000FDF77EFB02460B461346FB6458E0384BDC
:102B80005B689B09002218461146C0F308033B62AC
:102B900000237B62D7E9088942464B464FF000008C
:102BA0004FF00001590141EAD261500102460B4643
:102BB0004146B2EB010A494663EB010B4FF00002BC
:102BC0004FF000034FEA8B1343EA9A634FEA8A12ED
:102BD000B2EB0A0463EB0B054FF000024FF0000369
:102BE000EB0043EA5473E20014461D464346E318E3
:102BF0003B604B4645EB03037B604FF000024FF018
:102C00000003D7E9004529468B02214643EA915348
:102C100021468A02104619467B6C0022BB61FA618C
:102C2000D7E90623FDF724FB02460B461346FB6457
:102C30000B4B5B681B0C03F0030301335B003B642D
:102C4000FA6C3B6CB2FBF3F3BB6402E0054BBB6474
:102C500000BFBB6C18465037BD46BDE8B08F00BF03
:102C6000003802400024F40000127A0080B400AF63
:102C7000034B1B681846BD465DF8047B704700BFD8
:102C80000400002080B500AFFFF7F0FF0246054BBF
:102C90009B689B0A03F007030349CB5C22FA03F30A
:102CA000184680BD00380240E070000880B500AFD3
:102CB000FFF7DCFF0246054B9B685B0B03F0070345
:102CC0000349CB5C22FA03F3184680BD003802406A
:102CD000E070000880B586B000AF786000237B61AB
:102CE00000233B617B681B6803F00103002B05D1C7
:102CF0007B681B6803F00403002B35D0624B002275
:102D00001A60FEF7EDFC786108E0FEF7E9FC024688
:102D10007B69D31A022B01D90323B0E05B4B1B68FC
:102D200003F00063002BF0D17B685B689A017B683D
:102D30009B681B0755491343C1F88430524B01224D
:102D40001A60FEF7CDFC786108E0FEF7C9FC024688
:102D50007B69D31A022B01D9032390E04B4B1B68EC
:102D600003F00063002BF0D07B681B6803F00203C4
:102D7000002B00F083800023FB60444B1B6C434A14
:102D800043F080531364414B1B6C03F08053FB6092
:102D9000FB683F4B1B683E4A43F480731360FEF7A9
:102DA0009FFC786108E0FEF79BFC02467B69D31A22
:102DB000022B01D9032362E0354B1B6803F48073B7
:102DC000002BF0D0314B1B6F03F440733B613B6928
:102DD000002B2FD07B68DB6803F440733A699A427A
:102DE00028D02A4B1B6F23F440733B61294B0122EF
:102DF0001A60284B00221A60244A3B691367234B50
:102E00001B6F03F00103012B14D1FEF769FC7861FD
:102E10000AE0FEF765FC02467B69D31A41F288326C
:102E2000934201D903232AE0184B1B6F03F00203DE
:102E3000002BEED07B68DB6803F44073B3F5407F72
:102E40000DD1124B9B6823F4F8127B68DB6823F0EA
:102E5000704323F440730D4913438B6005E00B4B23
:102E60009B680A4A23F4F8139360084B1A6F7B6837
:102E7000DB68C3F30B03054913430B6700231846B4
:102E80001837BD4680BD00BF680047420038024089
:102E900000700040400E474280B584B000AF7860BB
:102EA0007B68002B01D1012373E07B685B7FDBB281
:102EB000002B05D17B6800221A777868FDF7B2FEF7
:102EC0007B6802225A777B681B68DB6803F010037B
:102ED000102B55D07B681B68CA225A627B681B681E
:102EE00053225A62786800F07FF80346FB73FB7B3D
:102EF000002B2CD17B681B689B687A68126823F4CE
:102F0000E00323F0400393607B681B6899687B684B
:102F10005A687B681B691A437B685B691A437B6844
:102F20001B680A439A607B681B687A68D2681A61DA
:102F30007B681B6819697B689B681A047B681B683F
:102F40000A431A61786800F086F80346FB73FB7B3E
:102F5000002B10D17B681B681A6C7B681B6822F4FD
:102F600080221A647B681B68196C7B689A697B688D
:102F70001B680A431A647B681B68FF225A6201E0DF
:102F80000023FB73FB7B002B02D17B6801225A7765
:102F9000FB7B18461037BD4680BD000080B584B06D
:102FA00000AF78600023FB607B681B680D4ADA6025
:102FB000FEF796FBF86009E0FEF792FB0246FB681D
:102FC000D31AB3F57A7F01D9032307E07B681B6826
:102FD000DB6803F02003002BEED0002318461037E7
:102FE000BD4680BD5F7F010080B584B000AF7860D2
:102FF0000023BB600023FB737B681B68DB6803F066
:103000004003002B22D17B681B68DA687B681B6851
:1030100042F08002DA60FEF763FBB8600CE0FEF776
:103020005FFB0246BB68D31AB3F57A7F04D97B688D
:1030300004225A770123FB737B681B68DB6803F06B
:103040004003002B02D1FB7B012BE8D1FB7B184610
:103050001037BD4680BD80B584B000AF78600023D6
:10306000FB737B681B68DA687B681B6822F0800250
:10307000DA607B681B689B6803F02003002B0AD191
:103080007868FFF78BFF0346002B04D07B6804228F
:103090005A770123FB73FB7B18461037BD4680BD72
:1030A00080B582B000AF78607B68002B01D101232E
:1030B0007BE07B685B6A002B08D17B685B68B3F5BB
:1030C000827F09D07B680022DA6105E07B680022FC
:1030D0001A617B6800225A617B6800229A627B68D1
:1030E00093F85130DBB2002B06D17B68002283F8C5
:1030F00050207868FEF718F87B68022283F8512088
:103100007B681B681A687B681B6822F040021A60A3
:103110007B685B6803F482727B689B6803F40443FA
:103120001A437B68DB6803F400631A437B681B69FE
:1031300003F002031A437B685B6903F001031A433F
:103140007B689B6903F400731A437B68DB6903F0B7
:1031500038031A437B681B6A03F0800342EA0301C9
:103160007B689B6A03F400527B681B680A431A6001
:103170007B689B691B0C03F004017B685B6A03F0AE
:1031800010027B681B680A435A607B681B68DA6917
:103190007B681B6822F40062DA617B6800225A6552
:1031A0007B68012283F85120002318460837BD466A
:1031B00080BD80B58AB000AFF860B9607A607B806E
:1031C00001237B62FEF78CFA3862FB6893F851307A
:1031D000FB77FB685B68BB617B88FB82FB7F012B15
:1031E0000CD0BB69B3F5827F06D1FB689B68002BCE
:1031F00002D1FB7F042B01D002237FE1BB68002BAF
:1032000005D07B68002B02D07B88002B01D10123E5
:1032100074E1FB6893F85030012B01D102236DE17A
:10322000FB68012283F85020FB6893F85130DBB231
:10323000042B03D0FB68052283F85120FB68002291
:103240005A65FB687A689A63FB687A88DA87FB6854
:103250007A889A87FB68BA681A63FB687A88DA8684
:10326000FB687A889A86FB6800221A64FB68002251
:103270005A64FB681B681B6803F04003402B07D0AF
:10328000FB681B681A68FB681B6842F040021A6002
:10329000FB68DB68B3F5006F7ED1FB685B68002BD1
:1032A00002D0FB8A012B6CD1FB681B6B1A88FB6870
:1032B0001B68DA60FB681B6B9A1CFB681A63FB686F
:1032C000DB8E9BB2013B9AB2FB68DA8659E0FB6861
:1032D0001B689B6803F00203022B1BD1FB68DB8E8B
:1032E0009BB2002B16D07B6A012B13D1FB681B6BA2
:1032F0001A88FB681B68DA60FB681B6B9A1CFB680A
:103300001A63FB68DB8E9BB2013B9AB2FB68DA86DC
:1033100000237B62FB681B689B6803F00103012BA1
:1033200019D1FB68DB8F9BB2002B14D0FB681B68A4
:10333000DA68FB689B6B92B21A80FB689B6B9A1CE5
:10334000FB689A63FB68DB8F9BB2013B9AB2FB6818
:10335000DA8701237B62FEF7C3F902463B6AD31A80
:103360003A6B9A420DD83B6BB3F1FF3F09D0FB6833
:10337000012283F85120FB68002283F850200323A8
:10338000BCE0FB68DB8E9BB2002BA0D1FB68DB8F1F
:103390009BB2002B9BD182E0FB685B68002B02D0C4
:1033A000FB8A012B71D1FB681A6BFB681B680C331D
:1033B00012781A70FB681B6B5A1CFB681A63FB6857
:1033C000DB8E9BB2013B9AB2FB68DA865DE0FB685C
:1033D0001B689B6803F00203022B1CD1FB68DB8E89
:1033E0009BB2002B17D07B6A012B14D1FB681A6BA0
:1033F000FB681B680C3312781A70FB681B6B5A1C35
:10340000FB681A63FB68DB8E9BB2013B9AB2FB68D8
:10341000DA8600237B62FB681B689B6803F001036C
:10342000012B19D1FB68DB8F9BB2002B14D0FB68FA
:103430001B68DA68FB689B6BD2B21A70FB689B6BE7
:103440005A1CFB689A63FB68DB8F9BB2013B9AB204
:10345000FB68DA8701237B62FEF742F902463B6A8A
:10346000D31A3A6B9A4203D83B6BB3F1FF3F02D1B8
:103470003B6B002B09D1FB68012283F85120FB68CC
:10348000002283F85020032338E0FB68DB8E9BB2D8
:10349000002B9CD1FB68DB8F9BB2002B97D13A6A43
:1034A000396BF86800F0B6F80346002B08D0FB68CB
:1034B00020225A65FB68002283F8502001231DE07A
:1034C000FB689B68002B0AD100233B61FB681B68EB
:1034D000DB683B61FB681B689B683B613B69FB6881
:1034E000012283F85120FB68002283F85020FB68FA
:1034F0005B6D002B01D0012300E000231846283724
:10350000BD4680BD80B588B000AFF860B9603B6053
:103510001346FB71FEF7E4F80246BB6A9B1A3A6851
:103520001344FB61FEF7DCF8B861394B1B685B01A3
:103530001B0DFA6902FB03F37B6155E03B68B3F1B5
:10354000FF3F51D0FEF7CCF80246BB69D31AFA69A7
:103550009A4202D9FB69002B3DD1FB681B685A686F
:10356000FB681B6822F0E0025A60FB685B68B3F5F9
:10357000827F11D1FB689B68B3F5004F04D0FB68D4
:103580009B68B3F5806F07D1FB681B681A68FB68FE
:103590001B6822F040021A60FB689B6AB3F5005F6B
:1035A0000FD1FB681B681A68FB681B6822F4005285
:1035B0001A60FB681B681A68FB681B6842F40052BB
:1035C0001A60FB68012283F85120FB68002283F80F
:1035D0005020032318E07B69002B02D10023FB61FC
:1035E00002E07B69013B7B61FB681B689A68BB68F2
:1035F0001340BA689A420CBF01230023DBB21A467B
:10360000FB799A429AD1002318462037BD4680BDE7
:103610000400002080B588B002AFF860B9607A601D
:103620007B680093BB6801220221F868FFF76AFFFC
:103630000346002B07D0FB685B6D43F02002FB685C
:103640005A65032332E01B4B1B681B4AA2FB032372
:103650005B0D4FF47A7202FB03F37B61FB685B68DE
:10366000B3F5827F12D17B680093BB680022802172
:10367000F868FFF747FF0346002B16D0FB685B6D29
:1036800043F02002FB685A6503230FE07B69002B9F
:103690000AD07B69013B7B61FB681B689B6803F078
:1036A0008003802BF2D000E000BF002318461837BB
:1036B000BD4680BD04000020819F5E1680B582B0AB
:1036C00000AF78607B68002B01D1012342E07B686A
:1036D00093F84130DBB2002B06D17B68002283F8DF
:1036E00040207868FDF7CEFE7B68242283F84120D5
:1036F0007B681B68DA687B681B6822F40052DA601A
:10370000786800F02BF87B681B681A697B681B6877
:1037100022F490421A617B681B685A697B681B68B7
:1037200022F02A025A617B681B68DA687B681B6892
:1037300042F40052DA607B6800225A647B682022DF
:1037400083F841207B68202283F842207B68002296
:103750005A63002318460837BD4680BD2DE9B04F97
:10376000C0B000AFC7F8F400D7F8F4301B681B698D
:1037700023F44050D7F8F430D968D7F8F4301A68F9
:1037800040EA01031361D7F8F4309A68D7F8F430AF
:103790001B691A43D7F8F4305B691A43D7F8F43041
:1037A000DB691343C7F8F830D7F8F4301B68DB68DF
:1037B00023F4164121F00C01D7F8F4301A68D7F839
:1037C000F8300B43D360D7F8F4301B685B6923F4FF
:1037D0004070D7F8F4309969D7F8F4301A6840EAA5
:1037E00001035361D7F8F4301A688F4B9A4205D021
:1037F000D7F8F4301A688D4B9A4204D1FFF756FA85
:10380000C7F8FC0003E0FFF73DFAC7F8FC00D7F863
:10381000F430DB69B3F5004F40F00C81D7F8FC3091
:103820000022C7F8E830C7F8EC20D7E93A4522462D
:103830002B469118B9655B41FB65D7E916232146F4
:1038400012EB0108294643EB01094FF000024FF04B
:1038500000034FEAC90343EA58734FEAC80290468F
:103860009946234618EB0303C7F8E0302B4649EB93
:103870000303C7F8E430D7F8F4305B680022C7F8D8
:10388000D830C7F8DC20D7E936120B46DB183B6589
:10389000134642EB03037B65D7E91423D7E93801CC
:1038A000FCF7E6FC02460B46614BA3FB02235B09D7
:1038B0001C01D7F8FC300022C7F8D030C7F8D4205C
:1038C000D7E9348942464B469118B9645B41FB64A1
:1038D000D7E91223414612EB010A494643EB010B9B
:1038E0004FF000024FF000034FEACB0343EA5A7354
:1038F0004FEACA0292469B4643461AEB0303C7F8B7
:10390000C8304B464BEB0303C7F8CC30D7F8F43044
:103910005B680022C7F8C030C7F8C420D7E930126E
:103920000B46DB183B64134642EB03037B64D7E989
:103930001023D7E93201FCF79BFC02460B461146E7
:103940003B4BA3FB01235B09642202FB03F3CB1A6D
:10395000DB0003F13202364BA3FB02235B095B0061
:1039600003F4F8731C44D7F8FC300022C7F8B830D1
:10397000C7F8BC20D7E92E8942464B469118B96357
:103980005B41FB63D7E90E23414651183963494631
:103990004B417B634FF000024FF00003D7E90CABC3
:1039A0005946CB00514643EA51735146CA0010466E
:1039B0001946034642469B18C7F8B0304B460A46A4
:1039C00042EB0303C7F8B430D7F8F4305B68002249
:1039D000C7F8A830C7F8AC20D7E92A120B46DB1885
:1039E000BB62134642EB0303FB62D7E90A23D7E924
:1039F0002C01FCF73DFC02460B460D4BA3FB0213CA
:103A00005B09642101FB03F3D31ADB003233084A5C
:103A1000A2FB03235B0903F00702D7F8F4301B680D
:103A200022449A6006E100BF0010014000140140EA
:103A30001F85EB51D7F8FC300022C7F8A030C7F83B
:103A4000A420D7E9288942464B46911839625B4148
:103A50007B62D7E9082341465418494643EB0105E8
:103A60004FF000024FF00003EB0043EA5473E20012
:103A700014461D464346E318C7F898304B4645EBBD
:103A80000303C7F89C30D7F8F4305B680022C7F80E
:103A90009030C7F894204FF000024FF00003D7E9B0
:103AA000244529468B00214643EA917321468A002A
:103AB000D7E92601FCF7DCFB02460B46604BA3FB73
:103AC00002235B091C01D7F8FC300022C7F88830BC
:103AD000C7F88C20D7E9228942464B469118B96134
:103AE0005B41FB61D7E906234146511839614946DC
:103AF0004B417B614FF000024FF00003D7E904AB6C
:103B00005946CB00514643EA51735146CA0010460C
:103B10001946034642469B18C7F880304B460A4672
:103B200042EB0303C7F88430D7F8F4305B68002217
:103B3000BB67FA674FF000024FF00003D7E91E8918
:103B400049468B00414643EA917341468A00D7E9D2
:103B50002001FCF78DFB02460B461146384BA3FBB8
:103B600001235B09642202FB03F3CB1A1B013233EE
:103B7000334AA2FB03235B0903F0F0031C44D7F88C
:103B8000FC3000223B677A67D7E91C8942464B46E6
:103B90009118B9605B41FB60D7E902234146511897
:103BA000396049464B417B604FF000024FF0000303
:103BB000D7E900AB5946CB00514643EA5173514611
:103BC000CA0010461946034642469B18BB664B4640
:103BD0000A4642EB0303FB66D7F8F4305B68002229
:103BE0003B667A664FF000024FF00003D7E9188970
:103BF00049468B00414643EA917341468A00D7E922
:103C00001A01FCF735FB02460B460D4BA3FB0213D2
:103C10005B09642101FB03F3D31A1B013233084A09
:103C2000A2FB03235B0903F00F02D7F8F4301B68F3
:103C300022449A6000BF07F58077BD46BDE8B08F8B
:103C40001F85EB5180B500AF0449054802F03CF9EF
:103C500003461A46034B1A7000BF80BDF0050020D2
:103C600034000020EC05002080B400AF002318468B
:103C7000BD465DF8047B704780B483B000AF034657
:103C8000FB71064B01221A70044B1B78DBB21846FD
:103C90000C37BD465DF8047B704700BF3000002044
:103CA00080B483B000AF0346FB71064B01221A704B
:103CB000044B1B78DBB218460C37BD465DF8047B1D
:103CC000704700BF3000002080B485B000AFB960FD
:103CD0007A603B600346FB73002318461437BD46E9
:103CE0005DF8047B704780B485B000AFB9607A603E
:103CF0003B600346FB73002318461437BD465DF84E
:103D0000047B704780B485B000AF03463A60FB7116
:103D10000B46BB710123FB73FB7B18461437BD4672
:103D20005DF8047B704780B485B000AF78607B6835
:103D300001331B78FB81B7F90E301B021AB27B6886
:103D40001B781BB213431BB2FB81FB891846143747
:103D5000BD465DF8047B704780B485B000AF7860E5
:103D60007B6803331B78FB60FB681B027A680232B6
:103D700012781343FB60FB681B027A6801321278E9
:103D80001343FB60FB681B027A6812781343FB60E5
:103D9000FB6818461437BD465DF8047B704780B455
:103DA00083B000AF78600B467B807B685A1C7A60DA
:103DB0007A88D2B21A707B881B0A7B807B685A1C77
:103DC0007A607A88D2B21A7000BF0C37BD465DF8AF
:103DD000047B704780B483B000AF786039607B6843
:103DE0005A1C7A603A68D2B21A703B681B0A3B6070
:103DF0007B685A1C7A603A68D2B21A703B681B0A18
:103E00003B607B685A1C7A603A68D2B21A703B6891
:103E10001B0A3B607B685A1C7A603A68D2B21A70FF
:103E200000BF0C37BD465DF8047B704780B487B097
:103E300000AFF860B9607A60FB687B61BB683B618A
:103E40007B68002B0DD03A69531C3B617B69591C80
:103E5000796112781A707B68013B7B607B68002B6C
:103E6000F1D100BF1C37BD465DF8047B704780B4BC
:103E700087B000AFF860B9607A60FB687B617B69EE
:103E80005A1C7A61BA68D2B21A707B68013B7B60B7
:103E90007B68002BF3D100BF00BF1C37BD465DF827
:103EA000047B704780B489B000AFF860B9607A6075
:103EB000FB68FB61BB68BB6100237B61FB695A1C2B
:103EC000FA611B781946BB695A1CBA611B78CB1A78
:103ED0007B617B68013B7B607B68002B02D07B6948
:103EE000002BEBD07B6918462437BD465DF8047B78
:103EF000704780B483B000AF7860396002E07B68BF
:103F000001337B607B681B78002B05D07B681B78B6
:103F10001A463B689342F2D17B681B7818460C37EF
:103F2000BD465DF8047B704780B485B000AF786013
:103F300039600023BB60BB68FB6029E0274AFB684F
:103F40001B0113441B68002B1DD0244AFB681B0176
:103F500013441A687B681B689A4216D11F4AFB6893
:103F60001B01134404331A687B689B689A420CD186
:103F70001A4AFB681B01134408331A687B685B69A3
:103F80009A4202D107E00123BB60FB680133FB606A
:103F9000FB68012BD2D9FB68022B09D1BB68002B2F
:103FA00002D13B68022B01D1002310E012230EE066
:103FB0003B68002B08D1094AFB681B0113440C33F2
:103FC0001B88B3F5807F01D1102300E00023184641
:103FD0001437BD465DF8047B704700BFFC05002028
:103FE00080B483B000AF00237B6002E07B680133C4
:103FF0007B607B68012B06D8094A7B681B01134450
:104000001B68002BF2D17B68022B14BF0123002315
:10401000DBB218460C37BD465DF8047B704700BF25
:10402000FC05002080B485B000AF786039600023C3
:10403000FB601FE0414AFB681B0113441A687B6860
:104040001B689A4213D13D4AFB681B011344043399
:104050001A687B689B689A4209D1384AFB681B0141
:10406000134408331A687B685B699A4206D0FB6880
:104070000133FB60FB68012BDCD900E000BFFB686B
:10408000022B32D10023FB6002E0FB680133FB60AE
:10409000FB68012B06D8294AFB681B0113441B68E7
:1040A000002BF2D1FB68022B01D1002340E07B689A
:1040B0001A682249FB681B010B441A607B689A68E6
:1040C0001E49FB681B010B4404331A607B685A6964
:1040D0001A49FB681B010B4408331A60174AFB6836
:1040E0001B0113440C3300221A803B68002B09D0BB
:1040F000124AFB681B0113440C331B88002B01D0B0
:10410000002315E03B68002B08D10C4AFB681B011B
:1041100013440C331B8801339AB201E04FF48072D0
:104120000649FB681B010B440C331A80FB68013302
:1041300018461437BD465DF8047B7047FC05002027
:1041400080B485B000AF78607B68013B7B607B68A2
:10415000012B25D8174A7B681B0113440C331B889D
:10416000FB81FB89B3F5807F01D10023FB81FB89B3
:10417000002B02D0FB89013BFB810E4A7B681B01AF
:1041800013440C33FA891A80FB89002B05D1094AA4
:104190007B681B01134400221A6000237B7301E03B
:1041A00002237B737B7B18461437BD465DF8047B86
:1041B000704700BFFC05002080B485B000AF786078
:1041C0000023FB6010E00D4AFB681B0113441B68D1
:1041D0007A689A4205D1094AFB681B011344002200
:1041E0001A60FB680133FB60FB68012BEBD900BF51
:1041F00000BF1437BD465DF8047B7047FC05002006
:1042000080B586B000AF78600023FB737B68DB78F5
:10421000002B34D07B68DB6A7B617B6858787B68D5
:1042200003F1300101237A69FCF7C3FA0346002B3E
:1042300002D00123FB7322E07B680022DA707B68E6
:104240001B6A7A69D21A7B689B699A4217D27B688B
:104250009B783B6110E07B689B697A6913447B61C2
:104260007B6858787B6803F1300101237A69FCF799
:10427000A0FA3B69013B3B613B69012BEBD8FB7B1F
:1042800018461837BD4680BD80B584B000AF786051
:1042900039600023FB737B68DB6A3A689A421BD063
:1042A0007868FFF7ADFF0346FB73FB7B002B13D150
:1042B0007B6858787B6803F1300101233A68FCF78A
:1042C00061FA0346002B04D04FF0FF333B6001231B
:1042D000FB737B683A68DA62FB7B18461037BD4691
:1042E00080BD000080B584B000AF78607868FFF7CB
:1042F00087FF0346FB73FB7B002B58D17B681B7841
:10430000032B48D17B681B79012B44D17B68303368
:104310004FF4007200211846FFF7A9FD7B68303387
:1043200003F5FF734AF655211846FFF738FD7B6801
:10433000303321491846FFF74DFD7B68303303F5D4
:10434000F2731E491846FFF745FD7B68303303F5CD
:10435000F4727B681B6919461046FFF73BFD7B68CA
:10436000303303F5F6727B68DB6819461046FFF7B9
:1043700031FD7B68DB695A1C7B68DA627B685878A0
:104380007B6803F130017B68DA6A0123FCF711FADC
:104390007B6800221A717B685B7800220021184636
:1043A000FCF71EFA0346002B01D00123FB73FB7BB5
:1043B00018461037BD4680BD52526141727241614C
:1043C00080B483B000AF786039603B68023B3B60EB
:1043D0007B685B69023B3A689A4201D3002308E09C
:1043E0007B685B891A463B6803FB02F27B689B6A29
:1043F000134418460C37BD465DF8047B704780B502
:1044000086B000AF786039607B681B683B613B68B1
:10441000012B04D93B695B693A689A4202D30123B4
:104420007B618EE04FF0FF337B613B691B78032B90
:1044300061D0032B7BDC012B02D0022B41D076E034
:104440003B68FB60FB685B08FA681344FB603B69F0
:104450001A6AFB685B0A134419463869FFF714FFB0
:104460000346002B66D1FB685A1CFA60C3F30803AD
:104470003A69134493F83030BB603B691A6AFB68B1
:104480005B0A134419463869FFF7FEFE0346002B0A
:1044900052D1FB68C3F308033A69134493F83030F0
:1044A0001B02BA681343BB603B6803F00103002B97
:1044B00002D0BB681B0902E0BB68C3F30B037B613E
:1044C0003FE03B691A6A3B681B0A13441946386986
:1044D000FFF7DAFE0346002B30D13B6903F13002CF
:1044E0003B685B0003F4FF7313441846FFF71BFCA3
:1044F00003467B6125E03B691A6A3B68DB0913448C
:1045000019463869FFF7C0FE0346002B18D13B69F6
:1045100003F130023B689B0003F4FE73134418461A
:10452000FFF71AFC034623F070437B6109E0012387
:104530007B6106E000BF04E000BF02E000BF00E0D6
:1045400000BF7B6918461837BD4680BD90B589B05D
:1045500000AFF860B9607A600223FB77BB68012B7B
:1045600040F2D980FB685B69BA689A4280F0D380D8
:10457000FB681B78032B00F09680032B00F3CB80A5
:10458000012B02D0022B6ED0C5E0BB68BB61BB69BA
:104590005B08BA691344BB61FB681A6ABB695B0AB2
:1045A00013441946F868FFF76FFE0346FB77FB7F5D
:1045B000002B40F0A980FB6803F13002BB69591C55
:1045C000B961C3F3080313447B61BB6803F00103C3
:1045D000002B0DD07B691B785BB203F00F035AB23E
:1045E0007B685BB21B015BB213435BB2DBB201E0E1
:1045F0007B68DBB27A691370FB680122DA70FB68B2
:104600001A6ABB695B0A13441946F868FFF73CFE57
:104610000346FB77FB7F002B78D1FB6803F1300268
:10462000BB69C3F3080313447B61BB6803F0010358
:10463000002B03D07B681B09DBB20EE07B691B7883
:104640005BB223F00F035AB27B681B0A5BB203F024
:104650000F035BB213435BB2DBB27A691370FB6882
:104660000122DA7057E0FB681A6ABB681B0A134420
:104670001946F868FFF708FE0346FB77FB7F002B1F
:1046800046D1FB6803F13002BB685B0003F4FF73A3
:1046900013447A6892B211461846FFF780FBFB6814
:1046A0000122DA7037E0FB681A6ABB68DB09134441
:1046B0001946F868FFF7E8FD0346FB77FB7F002B00
:1046C00028D17B6823F07044FB6803F13002BB689B
:1046D0009B0003F4FE7313441846FFF73DFB0346AB
:1046E00003F0704323437B60FB6803F13002BB6837
:1046F0009B0003F4FE73134479681846FFF76AFBC6
:10470000FB680122DA7006E000BF04E000BF02E0AF
:1047100000BF00E000BFFB7F18462437BD4690BDB8
:1047200080B588B000AFF860B9607A600023FB778D
:10473000FB681B68BB61BB68012B04D9BB695B6963
:10474000BA689A4201D302234BE07B68002B0CD05D
:104750004FF0FF327968B869FFF7F8FE0346FB7740
:10476000FB7F002B01D0FB7F3BE0B968F868FFF7C7
:1047700046FE78617B69002B31D07B69012B01D12A
:1047800002232EE07B69B3F1FF3F01D1012328E032
:104790000022B968B869FFF7D9FE0346FB77FB7FB3
:1047A000002B01D0FB7F1CE0BB691A69BB695B6908
:1047B000023B9A420BD2BB691B695A1CBB691A6146
:1047C000BB691B7943F00103DAB2BB691A717B69DB
:1047D000BB60BB695B69BA689A42C6D300E000BFA0
:1047E000002318462037BD4680BD80B588B000AF95
:1047F000786039607B681B683B613B68002B0DD19A
:104800003B69DB68BB61BB69002B04D03B695B691A
:10481000BA699A421BD30123BB6118E039687868F2
:10482000FFF7EDFDF860FB68012B01D8012370E074
:10483000FB68B3F1FF3F01D1FB686AE03B695B694C
:10484000FA689A4201D2FB6863E03B68BB61BB69CE
:10485000FB61FB690133FB613B695B69FA699A4261
:1048600007D30223FB61FA69BB699A4201D900238D
:104870004FE0F9697868FFF7C2FDF860FB68002B2C
:104880000ED0FB68012B03D0FB68B3F1FF3F01D1D1
:10489000FB683EE0FA69BB699A42DAD1002338E04E
:1048A00000BF4FF0FF32F9693869FFF74FFE03464A
:1048B000FB75FB7D002B09D13B68002B06D0FA6904
:1048C00039683869FFF742FE0346FB75FB7D002B14
:1048D00016D13B69FA69DA603B691A693B695B6921
:1048E000023B9A4204D83B691B695A1E3B691A6114
:1048F0003B691B7943F00103DAB23B691A7107E0A7
:10490000FB7D012B02D14FF0FF3300E00123FB615F
:10491000FB6918462037BD4680BD80B487B000AF24
:10492000786039607B681B68FB607B68DB6A0433F6
:104930003B613B685B0AFA685289B3FBF2F37B6127
:104940003B691A1D3A611B68BB60BB68002B01D133
:10495000002310E07A69BB689A4207D37A69BB6882
:10496000D31A7B613B6904333B61E9E700BF3B69D4
:104970001A687B69134418461C37BD465DF8047BF2
:10498000704780B586B000AF786039607B681B687F
:104990003B613B68B3F5001F04D23B6803F01F0383
:1049A000002B01D0022363E07B683A685A617B6880
:1049B0009B687B617B69002B06D13B691B78022BCE
:1049C00002D93B695B6A7B617B69002B0CD13B6838
:1049D0005B093A691289934201D3022348E03B699B
:1049E0005A6A7B68DA6129E03B695B895B02FB609C
:1049F00019E07B6879691846FFF701FD78617B69EA
:104A0000B3F1FF3F01D1012332E07B69012B04D9CF
:104A10003B695B697A699A4201D3022328E03A68CC
:104A2000FB68D31A3B603A68FB689A42E1D2796925
:104A30003869FFF7C5FC02467B68DA617B687A69F2
:104A40009A617B68DB69002B01D1022310E07B684F
:104A5000DA693B685B0A1A447B68DA613B6903F1F7
:104A600030023B68C3F308031A447B681A620023D0
:104A700018461837BD4680BD80B586B000AF786057
:104A800039607B681B68FB607B685B692033BB60B7
:104A90007B68DB69002B03D0BB68B3F5001F01D333
:104AA0000423AAE0BB68C3F30803002B40F09880FE
:104AB0007B68DB695A1C7B68DA617B689B69002B29
:104AC0000BD1BB685B09FA6812899342C0F08880F9
:104AD0007B680022DA6104238FE0BB685B0AFA6816
:104AE0005289013A1340002B7AD17A687B689B691E
:104AF00019461046FFF783FC78617B69012B01D8CA
:104B000002237AE07B69B3F1FF3F01D1012374E016
:104B1000FB685B697A699A4258D33B68002B04D1E1
:104B20007B680022DA61042367E07A687B689B690E
:104B300019461046FFF759FE78617B69002B01D1B9
:104B400007235AE07B69012B01D1022355E07B69E1
:104B5000B3F1FF3F01D101234FE0F868FFF750FBAD
:104B60000346002B01D0012347E0FB6830334FF4AC
:104B7000007200211846FFF77AF900233B6179693A
:104B8000F868FFF71DFC0246FB68DA6212E0FB687A
:104B90000122DA70F868FFF733FB0346002B01D0DF
:104BA00001232AE03B6901333B61FB68DB6A5A1C45
:104BB000FB68DA62FB685B891A463B699342E6D37D
:104BC000FB68DA6A3B69D21AFB68DA627B687A6949
:104BD0009A617969F868FFF7F3FB02467B68DA614E
:104BE0007B68BA685A61FB6803F13002BB68C3F3A3
:104BF00008031A447B681A62002318461837BD461A
:104C000080BD80B586B000AF786039607B681B6876
:104C1000FB6000217868FFF7B4FE0346FB75FB7D5F
:104C2000002B2BD100233B617B68DB691946F868B8
:104C3000FFF72AFB0346FB75FB7D002B1DD17B682C
:104C40001B6A1B78E52B04D07B681B6A1B78002B42
:104C500007D13B6901333B613A693B689A4202D113
:104C60000CE000233B6101217868FFF705FF034654
:104C7000FB75FB7D002BD7D000E000BFFB7D042B34
:104C800001D10723FB75FB7D18461837BD4680BD53
:104C900080B584B000AF786039603B681A3318463D
:104CA000FFF741F80346FB607B681B78032B09D1B3
:104CB0003B6814331846FFF736F803461B04FA68BE
:104CC0001343FB60FB6818461037BD4680BD80B5B6
:104CD00084B000AFF860B9607A60BB681A337A6854
:104CE00092B211461846FFF75AF8FB681B78032B5F
:104CF00009D1BB6803F114027B681B0C9BB21946F7
:104D00001046FFF74CF800BF1037BD4680BD80B598
:104D100086B000AF78607B681B683B6100217868D3
:104D2000FFF72FFE0346FB75FB7D002B01D0FB7DBB
:104D30003EE07B68DB6919463869FFF7A5FA034650
:104D4000FB75FB7D002B2FD17B681B6A1B78FB73E7
:104D5000FB7B002B02D10423FB7528E07B681B6AD8
:104D60000B331B7803F03F03DAB27B689A717B68E0
:104D70001B6A0B331B7803F00803002B0AD17B68F6
:104D8000186A7B6824330B221946FFF78BF8034619
:104D9000002B0BD000217868FFF76EFE0346FB75F1
:104DA000FB7D002BC5D002E000BF00E000BFFB7D13
:104DB00018461837BD4680BD80B584B000AF786016
:104DC0007B681B68BB6001217868FFF71AFF034608
:104DD000FB73FB7B002B1CD17B68DB691946B86831
:104DE000FFF752FA0346FB73FB7B002B11D17B6864
:104DF0001B6A202200211846FFF739F87B68186AE1
:104E00007B6824330B221946FFF710F8BB68012298
:104E1000DA70FB7B18461037BD4680BD80B588B080
:104E200000AF786039603B681B68FB607B682433A7
:104E3000BB600B222021B868FFF719F800233B6103
:104E40003B69FB6108237B61FB695A1CFA61FA68C4
:104E500013441B78FB76FB7E202B4ED9FB7E2F2B39
:104E600006D0FB7E5C2B10D102E0FB690133FB61B5
:104E7000FA68FB6913441B782F2BF6D0FA68FB699C
:104E800013441B785C2BF0D038E0FB7E2E2B03D034
:104E90003A697B699A420CD37B690B2B02D0FB7E6B
:104EA0002E2B01D0062344E008233B610B237B61BA
:104EB00022E097F91B30002B04DAFB7E803B1F4A6F
:104EC000D35CFB76FB7E19461D48FFF712F80346BC
:104ED000002B01D006232CE0FB7E602B05D9FB7E46
:104EE0007A2B02D8FB7E203BFB763B695A1C3A6149
:104EF000BA681344FA7E1A70A6E700BFFA68FB6925
:104F00001A443B681A603B69002B01D1062310E06C
:104F1000BB681B78E52B02D1BB6805221A70FB7EAB
:104F2000202B01D8042200E00022BB680B331A704A
:104F3000002318462037BD4680BD00BFE87000083A
:104F40008870000880B586B000AF786039607B68F3
:104F50003B613B691B68FB6002E03B6801333B60DF
:104F60003B681B782F2BF8D03B681B785C2BF4D068
:104F70003B6900229A603B681B781F2B0AD87B682C
:104F8000802283F82F2000217868FFF7FAFC03467F
:104F9000FB7543E03B4619467868FFF73FFF034641
:104FA000FB75FB7D002B34D17868FFF7B0FE03461C
:104FB000FB757B6893F82F30FB72FB7D002B0AD0CA
:104FC000FB7D042B27D1FB7A03F00403002B22D1B5
:104FD0000523FB751FE0FB7A03F00403002B1CD1B3
:104FE0003B699B7903F01003002B02D10523FB756D
:104FF00014E0FB6803F130027B685B69C3F30803CC
:1050000013441946F868FFF743FE02463B699A606D
:10501000C0E700BF02E000BF00E000BFFB7D184614
:105020001837BD4680BD80B487B000AF78604FF0C0
:10503000FF333B617B681B68002B31D07B681B68AA
:105040007B6102E07B6901337B617B691B78202BEC
:1050500003D97B691B783A2BF4D17B691B783A2BF7
:105060001CD17B681B68FB60FB685A1CFA601B78CC
:10507000303BBB60BB68092B0ED8FA687B699A424B
:105080000AD1BB68002B07D1BB683B617B69013348
:105090007B617B687A691A603B6902E000233B61AF
:1050A0003B6918461C37BD465DF8047B704700001D
:1050B00080B582B000AF786039607B680022DA701A
:1050C0007B684FF0FF32DA6239687868FFF7DCF806
:1050D0000346002B01D0042338E07B68303303F50E
:1050E000FF731846FEF71FFE03461A464AF655237D
:1050F0009A4201D0032329E07B6893F83030E92BF2
:1051000009D07B6893F83030EB2B1ED17B6893F885
:105110003230902B19D17B68303336331846FEF786
:105120001BFE034623F07F430A4A934201D100232A
:105130000CE07B68303352331846FEF70DFE034611
:10514000054A934201D1002300E0022318460837A4
:10515000BD4680BD464154004641543380B596B0AB
:1051600000AFF860B9601346FB71BB6800221A609B
:10517000F868FFF758FFF863FB6B002B01DA0B238D
:105180002DE2A14AFB6B52F82330BB63BB6B002BB3
:1051900001D10C2323E2BB68BA6B1A60FB7923F0C0
:1051A0000103FB71BB6B1B78002B1AD0BB6B5B78C8
:1051B0001846FBF7C5FA034687F8373097F83730BB
:1051C00003F00103002B0CD1FB79002B07D097F8DB
:1051D000373003F00403002B01D00A23FFE1002342
:1051E000FDE1BB6B00221A70FB6BDAB2BB6B5A702D
:1051F000BB6B5B781846FBF7B4FA034687F8373089
:1052000097F8373003F00103002B01D00323E6E1C8
:10521000FB79002B07D097F8373003F00403002BFD
:1052200001D00A23DBE100233B65396DB86BFFF742
:105230003FFF034687F8573097F85730022B49D184
:1052400000233B641EE0BB6B03F130023B6C1B018F
:1052500003F5DF7313443B633B6B04331B78002B74
:1052600006D03B6B08331846FEF776FD024600E099
:1052700000223B6C9B0058333B4443F8442C3B6C6E
:1052800001333B643B6C032BDDD900233B643B6C57
:10529000002B02D03B6C013B3B643B6C9B005833C2
:1052A0003B4453F8443C3B653B6D002B05D0396DC6
:1052B000B86BFFF7FDFE034600E0032387F8573085
:1052C00097F85730012B05D93B6C01333B643B6C9D
:1052D000032BE2D997F85730042B01D101237EE14B
:1052E00097F85730012B01D90D2378E1BB6B303390
:1052F0000B331846FEF717FD0346B3F5007F01D0C8
:105300000D236CE1BB6B303316331846FEF70BFDF3
:105310000346FB64FB6C002B06D1BB6B303324339C
:105320001846FEF719FDF864BB6BFA6C9A61BB6B0B
:1053300093F84020BB6B9A70BB6B9B78012B05D018
:10534000BB6B9B78022B01D00D2348E1BB6B9B7894
:105350001A46FB6C02FB03F3FB64BB6B93F83D3016
:105360001A46BB6B5A81BB6B5B89002B08D0BB6BA9
:105370005B891A46BB6B5B89013B1340002B01D054
:105380000D232CE1BB6B303311331846FEF7CBFCF9
:1053900003461A46BB6B1A81BB6B1B8903F00F03D4
:1053A0009BB2002B01D00D2319E1BB6B30331333BB
:1053B0001846FEF7B8FC0346BB64BB6C002B06D155
:1053C000BB6B303320331846FEF7C6FCB864BB6BAA
:1053D00030330E331846FEF7A6FC0346FB85FB8DE3
:1053E000002B01D10D23FAE0FA8DFB6C1344BA6B4C
:1053F0001289120992B21344BB62BA6CBB6A9A4218
:1054000004D20D23EBE000BFF4050020BA6CBB6AA8
:10541000D31ABA6B5289B3FBF2F37B627B6A002B1F
:1054200001D10D23DBE0032387F857307B6A4FF669
:10543000F572934202D8022387F857307B6A40F610
:10544000F572934202D8012387F857307B6A9A1C81
:10545000BB6B5A61BB6B3A6DDA61FA8D3B6D1A44D6
:10546000BB6B1A623A6DBB6A1A44BB6B9A6297F8BF
:105470005730032B1ED1BB6B30332A331846FEF74F
:1054800052FC0346002B01D00D23A8E0BB6B1B8907
:10549000002B01D00D23A2E0BB6B30332C33184618
:1054A000FEF75AFC0246BB6B5A62BB6B5B699B0002
:1054B0007B641FE0BB6B1B89002B01D10D238EE0A9
:1054C000BB6B1A6AFB6C1A44BB6B5A6297F8573075
:1054D000022B03D1BB6B5B695B000AE0BB6B5A69B3
:1054E00013465B0013445A08BB6B5B6903F001036E
:1054F00013447B64BB6B9A697B6C03F2FF135B0AFA
:105500009A4201D20D236AE0BB6B4FF0FF321A6161
:10551000BB6B1A69BB6BDA60BB6B80221A7197F8A0
:105520005730032B49D1BB6B303330331846FEF76D
:10553000FAFB0346012B40D13B6D01331946B86B92
:10554000FEF7A2FE0346002B37D1BB6B00221A7177
:10555000BB6B303303F5FF731846FEF7E4FB0346DD
:105560001A464AF655239A4227D1BB6B3033184668
:10557000FEF7F2FB03461C4A93421ED1BB6B30334D
:1055800003F5F2731846FEF7E7FB0346174A93420A
:1055900013D1BB6B303303F5F4731846FEF7DCFB15
:1055A0000246BB6B1A61BB6B303303F5F6731846CA
:1055B000FEF7D2FB0246BB6BDA60BB6B97F8572055
:1055C0001A700B4B1B8801339AB2094B1A80084B97
:1055D0001A88BB6BDA80B86BFEF7EEFD0023184625
:1055E0005837BD4680BD00BF525261417272416161
:1055F000F805002080B584B000AF786039600923D9
:10560000FB737B68002B1CD07B681B68002B18D0B9
:105610007B681B681B78002B13D07B689A887B689B
:105620001B68DB889A420CD17B681B685B78184644
:10563000FBF786F8034603F00103002B01D100239A
:10564000FB73FB7B002B02D17B681B6800E000230F
:105650003A681360FB7B18461037BD4680BD0000DA
:1056600080B588B000AFF860B9601346FB71BB68C5
:105670003B6107F110031846FFF7D5FCF861FB69A1
:10568000002B01DA0B232BE0174AFB6952F8233079
:10569000BB61BB69002B05D0B869FEF78DFDBB6906
:1056A00000221A70FB68002B02D0FB6800221A70DF
:1056B000FA680D49FB6941F82320FB68002B02D0F2
:1056C000FB79012B01D000230AE007F10C0107F15F
:1056D000080300221846FFF741FD0346FB75FB7DDA
:1056E00018462037BD4680BDF405002080B598B02F
:1056F00000AFF860B9601346FB71FB68002B01D165
:105700000923A9E1FB7903F03F03FB71FA7907F163
:10571000100107F108031846FFF720FD034687F83C
:105720005F3097F85F30002B40F08D813B697B61E3
:10573000BA6807F1140311461846FFF703FC034645
:1057400087F85F3097F85F30002B18D197F8433017
:105750005BB2002B03DA062387F85F300FE0FB799A
:10576000012B8CBF01230023DBB21A4607F114037F
:1057700011461846FEF7D8FB034687F85F30FB79E1
:1057800003F01C03002B7FD097F85F30002B17D05D
:1057900097F85F30042B0ED1FEF722FC0346002B56
:1057A00006D007F114031846FFF706FB034600E096
:1057B000122387F85F30FB7943F00803FB7110E098
:1057C000BB7E03F01103002B03D0072387F85F3063
:1057D00007E0FB7903F00403002B02D0082387F8CD
:1057E0005F3097F85F30002B68D1FB7903F0080336
:1057F000002B63D0FEF738FA38657B6B0E33396DBA
:105800001846FEF7E7FA7B6B1633396D1846FEF73C
:10581000E1FA7B6B0B3320221A703B697A6B1146DD
:105820001846FFF735FAF8643B69796B0022184691
:10583000FFF74DFA7B6B1C3300211846FEF7CAFABE
:105840003B690122DA70FB6C002B37D03B69DB6AC5
:105850003B6507F114030022F96C1846FEF760FF60
:10586000034687F85F3097F85F30002B26D13B69FD
:10587000396D1846FEF708FD034687F85F303B692F
:10588000FA6C013ADA6019E097F85F30002B15D115
:10589000BB7E03F01003002B03D0042387F85F3096
:1058A0000CE0FB7903F00203002B07D0BB7E03F072
:1058B0000103002B02D0072387F85F3097F85F3091
:1058C000002B26D1FB7903F00803002B03D0FB79D2
:1058D00043F04003FB713B69DA6AFB685A627A6BFA
:1058E000FB689A62FB79012B8CBF01230023DBB29A
:1058F0001A4607F1140311461846FEF793FB0246B9
:10590000FB681A61FB681B69002B02D1022387F830
:105910005F3097F85F30002B40F095803B697A6BE1
:1059200011461846FFF7B4F90246FB689A607B6B94
:105930001C331846FEF710FA0246FB68DA60FB6873
:105940000022DA623A69FB681A603B69DA88FB6810
:105950009A80FB68FA791A75FB6800225A75FB6811
:1059600000221A62FB6800229A61FB6830334FF410
:10597000007200211846FEF77AFAFB7903F0200343
:10598000002B60D0FB68DB68002B5CD0FB68DA681A
:10599000FB689A613B695B895B02BB64FB689B683F
:1059A000BB65FB68DB687B6516E0FB68B96D184674
:1059B000FEF725FDB865BB6D012B02D8022387F8E1
:1059C0005F30BB6DB3F1FF3F02D1012387F85F3039
:1059D0007A6DBB6CD31A7B6597F85F30002B03D1CF
:1059E0007A6DBB6C9A42E0D8FB68BA6DDA6197F8C1
:1059F0005F30002B27D17B6DC3F30803002B22D02F
:105A00003B69B96D1846FEF7DBFC78647B6C002BB4
:105A100003D1022387F85F3015E07B6D5A0A7B6C57
:105A20001A44FB681A623B695878FB6803F130013D
:105A3000FB681A6A0123FAF7A5FE0346002B02D081
:105A4000012387F85F3097F85F30002B02D0FB68A6
:105A500000221A6097F85F3018466037BD4680BD57
:105A600080B58EB000AFF860B9607A603B60BB680B
:105A70007B623B6800221A60FB6807F11402114642
:105A80001846FFF7B7FD034687F8373097F83730E9
:105A9000002B07D1FB685B7D87F8373097F83730EC
:105AA000002B02D097F8373015E1FB681B7D03F01F
:105AB0000103002B01D107230DE1FB68DA68FB68C5
:105AC0009B69D31A3B627A683B6A9A4240F2FE8035
:105AD0003B6A7B60FAE0FB689B69C3F30803002B19
