:020000040800F2
:1000000000000220E10D0008750C0008770C0008C4
:10001000790C00087B0C00087D0C00080000000033
:100020000000000000000000000000007F0C00083D
:10003000810C000800000000830C0008850C0008FB
:10004000310E0008310E0008310E0008310E000894
:10005000310E0008310E0008310E0008310E000884
:10006000310E0008310E0008310E0008310E000874
:10007000310E0008310E0008310E0008310E000864
:10008000310E0008310E0008310E0008310E000854
:10009000310E0008310E0008310E0008310E000844
:1000A000310E0008310E0008310E0008310E000834
:1000B000310E0008310E0008310E0008310E000824
:1000C000310E0008310E0008310E0008310E000814
:1000D000310E0008310E0008310E0008310E000804
:1000E000310E0008310E0008310E0008310E0008F4
:1000F000310E0008310E0008310E0008310E0008E4
:10010000310E0008310E0008310E0008310E0008D3
:10011000310E0008310E0008310E0008310E0008C3
:10012000310E0008310E0008310E0008310E0008B3
:10013000310E0008310E0008310E0008310E0008A3
:10014000310E0008310E0008310E0008310E000893
:10015000310E0008310E0008310E0008310E000883
:10016000310E0008310E0008310E0008310E000873
:10017000310E0008310E0008310E000800000000AA
:08018000310E0008310E0008E9
:1001900010B5054C237833B9044B13B10448AFF3C1
:1001A00000800123237010BD8000002000000000AB
:1001B0000040000808B5034B1BB103490348AFF3E7
:1001C000008008BD000000008400002000400008FE
:1001D00001F0FF01102A2BDB10F0070F08D010F8F8
:1001E000013B013A8B422DD010F0070F42B3F6D1FC
:1001F000F0B441EA012141EA014122F007047FF015
:1002000000070023F0E80256083C85EA010586EA6B
:10021000010685FA47F5A3FA87F586FA47F6A5FAA7
:1002200087F68EB9EED1F0BC01F0FF0102F00702B3
:1002300032B110F8013B013A83EA010313B1F8D15E
:100240000020704701387047002D06BF354603383F
:10025000073815F0010F07D1013015F4807F02BF78
:10026000013015F4C03F0130F0BC0138704700BFC9
:1002700053B94AB9002908BF00281CBF4FF0FF310D
:100280004FF0FF3000F088B9ADF1080C6DE904CEF5
:1002900000F006F8DDF804E0DDE9022304B0704761
:1002A0002DE9F047089D8E4604468846002B4AD12A
:1002B0008A42174662D9B2FA82F64EB1C6F12003DD
:1002C00001FA06F820FA03F3B74043EA0808B440FD
:1002D0004FEA174E1FFA87FCB8FBFEF1230C0EFB0A
:1002E000118843EA084301FB0CF29A4209D9FB1832
:1002F00001F1FF3080F0EA809A4240F2E780023953
:100300003B449A1AA3B2B2FBFEF00EFB102243EA62
:10031000024300FB0CFC9C4509D9FB1800F1FF329D
:1003200080F0D6809C4540F2D3803B44023840EABE
:100330000140A3EB0C0300211DB1F3400022C5E9ED
:100340000032BDE8F0878B4205D90DB1C5E9000147
:1003500000210846F5E7B3FA83F1002946D1734539
:1003600002D3824200F20581841A6EEB030201205F
:100370009046002DE5D0C5E90048E2E7002A00F0EC
:100380009080B2FA82F6002E40F0A4808A1A030C04
:100390004FEA174E80B2BCB20121B2FBFEFC0EFB4D
:1003A0001C2243EA024304FB0CF29A4207D9FB18D1
:1003B0000CF1FF3802D29A4200F2E080C4469B1A48
:1003C000B3FBFEF20EFB123340EA034302FB04F4DC
:1003D0009C4207D9FB1802F1FF3002D29C4200F286
:1003E000CA8002461B1B42EA0C40A5E7C1F1200669
:1003F0008B4022FA06F71F430EFA01F420FA06F3A7
:100400002EFA06FE4FEA1749234300FA01F81FFAB5
:1004100087FCBEFBF9F01C0C09FB10EE44EA0E440D
:1004200000FB0CFEA64502FA01F209D93C1900F1C5
:10043000FF3A80F09C80A64540F2998002383C4407
:10044000A4EB0E041FFA83FEB4FBF9F309FB13447B
:100450004EEA044403FB0CFCA44508D93C1903F103
:10046000FF3E80F08280A4457FD9023B3C4443EAB2
:100470000040A4EB0C04A0FB02EC64457346E1468B
:1004800062D35FD05DB1B8EB030264EB090404FAF8
:1004900006F622FA01F31E43CC40C5E900640021B0
:1004A0004FE7B1FBF2FC010C41EA0E4180B240EA99
:1004B00001423B4638463C46B846BE462026B1FB84
:1004C000F7F1A2EB080241EA0C4166E7014618E7A2
:1004D00010462CE7C6F120022EFA02F3B740B140D5
:1004E00020FA02F24FEA174E0A43B3FBFEF8BCB201
:1004F0000EFB1833110C41EA034108FB04F9B0402C
:1005000089454FEA104380B23ED9791808F1FF3C83
:1005100001D289451FD8A1EB0901B1FBFEF909FB06
:1005200004F80EFB191192B242EA0142424529D267
:10053000BA1809F1FF31C4D24245C2D2A9F1020171
:100540003A44BEE7F0459DD2BEEB02036CEB070CCC
:100550000138E14696E7A7EB09094944A8F1020CE6
:10056000B1FBFEF909FB04F8DBE773467FE7504671
:1005700066E70846FDE63B44023A33E7ACF1020C7D
:100580003B441CE749469CE7A1EB0901C446B1FB8B
:10059000FEF909FB04F8C4E7704700BF003818BF34
:1005A0000120704708B900F0B1BA0120704710B4BB
:1005B0000446084611461A461CB95DF8044B00F083
:1005C000ACBA04205DF8044B704710B404460846EA
:1005D00011461A461CB95DF8044B00F0B1BA04206C
:1005E0005DF8044B70470346084611460BB900F00E
:1005F000BABA04207047000030B514228BB00DEB5E
:100600000200002102F07AFF00241E4B01941A6BB5
:100610001D4D42F080021A631A6B02F080020192B3
:10062000019A02941A6B42F001021A631A6B02F0EB
:1006300001020292029A03941A6B42F008021A63B2
:100640001A6B02F008020392039A04941A6B42F0A8
:1006500002021A631B6B03F002030493224628462E
:100660004FF48051049B00F097FD4FF4805201231A
:1006700005A92846CDE90523CDE9074400F0B4FCDF
:100680000BB030BD00380240000C024010B51849D4
:100690001848012202F0B4FA04460146164802F056
:1006A000E5FDFCB915491648164C0A2202F0D2FAAB
:1006B00001462070144802F0D9FD23785BB9134B32
:1006C00013490F481D2202F0C3FB124802F036FE08
:1006D0000B4802F0D3FCBDE8104005490122002080
:1006E00002F08EBABDE810400B4802F027BE00BFF2
:1006F0005A400008D40200201C400008274000088F
:10070000A4000020A0000020324000089C0000202F
:100710003D4000085B4000086A40000800B595B005
:100720002C22002109A802F0E9FE1422002103A8CE
:1007300002F0E4FE00231A4A0193116C41F080514B
:100740001164126C02F080520192019A154A0293D0
:10075000116841F480411160126802F480420292F3
:10076000029A0A221021089208A80122CDE90B2141
:10077000CDE90D2300F01EFD014608B172B6FEE77B
:100780000F23CDE90330CDE90500079003A800F061
:10079000EDFE08B172B6FEE715B05DF804FB00BFD0
:1007A000003802400070004070B50A4D0A482B68BE
:1007B0001E685C6802F0C2FD00F03CFB72B6074B9D
:1007C0002A689A6086F3088844F00103BDE8704007
:1007D000184700BF184000087A40000800ED00E00C
:1007E00008B500F069FBFFF799FFFFF705FF00F080
:1007F0008FFA00F035F800F0C9F901F0CBFB0D4B92
:100800001B6819684A1C0ED10B4802F097FDFFF7D0
:100810003DFF0A4C20464FF4805100F0C2FC64209A
:1008200000F076FBF6E75A68054802F01FFDFFF777
:10083000BBFFEEE7184000087F400008000C0240B4
:100840008E40000810B564231446034892B201F0AC
:1008500052FB204610BD00BF8405002072B6FEE7A3
:100860000A480B4A08B50023C0E900237F21FF2274
:10087000C0E90212C0E90433836101F016F818B12F
:10088000BDE80840FFF7EABF08BD00BF040500202F
:10089000002800401FB5044610220021684602F0DF
:1008A0002DFE2268094B9A420ED10223009368461E
:1008B0004FF40073039300F013FF08B1FFF7CEFF6E
:1008C000034B0122C3F83C2E04B010BD00280040A9
:1008D0000000474202480122102100F05DBC00BF29
:1008E000000002407FB54FF0FF338DF80F000093FA
:1008F0000DF1170201230DF10F01044801F012F967
:100900009DF8170007B05DF804FB00BF2805002024
:1009100070B50646FF200C461546FFF7E3FF0022A0
:100920001021104800F038FC3046FFF7DBFF200EA6
:10093000FFF7D8FFC4F30740FFF7D4FFC4F3072045
:10094000FFF7D0FFE0B2FFF7CDFF2846FFF7CAFF61
:100950000A24FF20FFF7C6FF030602D5013CF8D1A9
:10096000FF2070BD00000240F7B5334E0023337006
:10097000FFF7B0FF0A24FF20FFF7B4FF013CFAD1D4
:100980002E4802F0DBFC952221464020FFF7C0FFF5
:10099000012805464ED12A4802F0D0FC87224FF4A8
:1009A000D5714820FFF7B4FF012836D1FF20FFF7AB
:1009B00099FFFF20FFF796FFFF20FFF793FFFF202F
:1009C000FFF790FF012200217720FFF7A1FF4FF0F2
:1009D000804101226920FFF79BFF01460028F1D1E9
:1009E00001227A20FFF794FF044670B901AFFF207F
:1009F000FFF778FF0134042C07F8010BF7D19DF8BD
:100A000004305B0601D501233370FFF763FFFF203D
:100A1000FFF768FF284603B0F0BD012200217720D0
:100A2000FFF776FF012200216920FFF771FF002800
:100A3000F3D1EAE72546EDE724050020AB400008A6
:100A4000BC40000838B5144B1B780C4603B9400273
:100A5000014601225120FFF75BFFD8B9FF20FFF7C5
:100A600041FFFE28FAD1651E04F2FF14FF20FFF7B4
:100A700039FF05F8010FA542F8D1FF20FFF732FF3B
:100A8000FF20FFF72FFFFFF725FFFF20FFF72AFFCB
:100A9000012038BD0020FCE72405002038B51A4BA2
:100AA0001B780C4603B94002014601225820FFF78B
:100AB0002FFF08B1002038BDFF20FFF713FFFE20F5
:100AC000FFF710FF651E04F2FF1415F8010FFFF782
:100AD00009FFA542F9D1FF20FFF704FFFF20FFF730
:100AE00001FFFF20FFF7FEFE00F01F000528E1D107
:100AF000FF20FFF7F7FE0028FAD0FFF7EBFEFF20FC
:100B0000FFF7F0FE0120D6E72405002008B5FFF727
:100B10002BFFB0FA80F0400908BD70B50C460546C1
:100B20005618B44201D1002070BD29462046FFF777
:100B300089FF013405F500750028F2D10120F3E7A3
:100B400070B50C4605465618B44201D1002070BD60
:100B500029462046FFF7A2FF013405F5007500285D
:100B6000F2D10120F3E703280ED8DFE800F0050AF0
:100B700002074FF400730B800020704701230B60C5
:100B8000FAE74FF40043FAE7042070470E480F4A93
:100B900008B54FF48273C0E9002300234FF480228C
:100BA000C0E90233C0E90433C0E90623C0E90833D1
:100BB00083620A23C36200F059FF18B1BDE8084000
:100BC000FFF74CBE08BD00BF2805002000300140E3
:100BD00010B5044688B01422002103A802F08EFC50
:100BE0002268144B9A4222D103F5843300210191EB
:100BF0005A6C114842F480525A645A6C02F4805282
:100C00000192019A02911A6B42F001021A631B6B66
:100C100003F001030293029BF02202230321CDE99A
:100C200003230523CDE9061303A900F0DDF908B07D
:100C300010BD00BF003001400000024082B00C4BEC
:100C4000002100915A6C42F480425A645A6C02F4BA
:100C500080420092009A01911A6C42F080521A640C
:100C60001B6C03F080530193019B02B0704700BFDF
:100C700000380240FEE7FEE7FEE7FEE7FEE77047CA
:100C80007047704700F032B970B50D4614460E46F5
:100C9000731B9C4201DC204670BDAFF3008006F858
:100CA000010BF5E74FF0FF3070474FF400534B60F6
:100CB0000020704701207047002070470B4A1168E0
:100CC00010B5034609B90A491160106809490A4C70
:100CD0000344091B8B4206D902F05EFC0C2303601F
:100CE0004FF0FF3010BD1360FCE700BF800500200F
:100CF000580700200000022000040000034AD2F838
:100D0000883043F47003C2F88830704700ED00E08B
:100D10000B480C4A08B54FF4E133C0E90023002327
:100D20000C22C0E90233C0E905230361C36101F06D
:100D3000B3F818B1BDE80840FFF790BD08BD00BF8B
:100D40008405002000100140F0B5044689B014224B
:100D5000002103A802F0D2FB22681E4B9A4237D131
:100D600003F59433002400945A6C1B4842F010029F
:100D70005A645A6C02F010020092009A01941A6BA5
:100D800042F001021A631A6B02F001020192019A09
:100D900002941A6B42F002021A631B6B03F0020307
:100DA0000293029B02274FF480630326072503A9C1
:100DB000CDE90337CDE9066500F016F94023074871
:100DC000079503A9CDE90337CDE9054600F00CF9F5
:100DD00009B0F0BD001001400000024000040240D4
:100DE000DFF834D0FFF78AFF0C480D490D4A002385
:100DF00002E0D458C4500433C4188C42F9D30A4AD0
:100E00000A4C002301E013600432A242FBD302F03B
:100E1000C9FBFFF7E5FC704700000220000000203E
:100E200080000020B4410008800000205807002006
:100E3000FEE770470A4B0B4A10B51A6200240A4AB3
:100E40001C625A62094A5C621A61C1221C615A61C1
:100E500001225C619A619C61FFF7EBFF204610BDA7
:100E600000380240FFC9FEF633797704FF11602293
:100E700038B50E4B1A784FF47A73B3FBF2F30C4A81
:100E800005461068B0FBF3F000F09AF8044658B934
:100E90000F2D09D8024629464FF0FF3000F05EF8CA
:100EA000044B20461D6038BD0120FCE704000020F3
:100EB000000000200800002008B50B4B1A6842F41F
:100EC00000721A601A6842F480621A601A6842F46A
:100ED00080721A60032000F02FF80F20FFF7C8FF80
:100EE000FFF7ACFE002008BD003C0240034A044B63
:100EF00011681B780B441360704700BFCC050020BD
:100F000004000020014B1868704700BFCC0500208A
:100F100038B50446FFF7F6FF631C1CBF054B1B7872
:100F2000054618BFE418FFF7EDFF431BA342FAD3B1
:100F300038BD00BF040000200749CA6822F4E062FF
:100F40000302120403F4E063120C134343F0BF6383
:100F500043F40033CB60704700ED00E0164B30B532
:100F6000DC68C4F30224C4F10703251D042B28BF49
:100F70000423062D4FF0FF358CBF033C002405FAF7
:100F800003F321EA0303A54022EA0502A340002857
:100F900043EA0203ACBF00F16040084A4FEA031382
:100FA000B8BF00F00F00DBB2AABF00F561401354D8
:100FB00080F8003330BD00BF00ED00E014ED00E02C
:100FC0000138B0F1807F0BD24FF0E023054A586121
:100FD000F02182F823100020072298611A617047DF
:100FE0000120704700ED00E02DE9F74FDFF8A491F4
:100FF000664A00230D6801249C4004EA0506AC43C0
:1010000040F0AF804D68032705F003044FEA430822
:1010100007FA08FC671E012F6FEA0C0C34D88768AA
:1010200007EA0C0ECF6807FA08F747EA0E07876051
:10103000476827EA060EC5F300179F4047EA0E07E8
:101040004760C76807EA0C0E8F6807FA08F747EA97
:101050000E07022CC76019D14FEAD30A00EB8A0AA7
:1010600003F0070BDAF820704FEA8B0B4FF00F0EEE
:101070000EFA0BFE27EA0E0E0F6907FA0BF747EA86
:101080000E07CAF8207001E0032CDAD1076804FAD1
:1010900008F407EA0C073C4315F4403F046060D0B5
:1010A00000240194D9F8444044F48044C9F84440F1
:1010B000D9F8444023F0030707F1804704F4804443
:1010C00007F59C37019403F0030C019CD7F808E066
:1010D0004FEA8C0C0F2404FA0CF42EEA040E2C4C6C
:1010E000A04245D004F58064A04243D004F580645A
:1010F000A04241D004F58064A0423FD004F5806452
:10110000A0423DD004F58064A0423BD004F5806449
:10111000A04239D004F58064A04214BF08240724FB
:1011200004FA0CF444EA0E04BC609468F74315F426
:10113000801F0CBF3C4034439460D46815F4001FFA
:101140000CBF3C403443D460546815F4003F0CBFDE
:101150003C40344354601468ED0354BF3C40344376
:1011600014600133102B7FF445AF03B0BDE8F08F5E
:101170000024D5E70124D3E70224D1E70324CFE7F5
:101180000424CDE70524CBE70624C9E7003C014051
:1011900000000240003802400AB181617047090432
:1011A000FBE7436901EA030221EA030141EA024144
:1011B000816170472DE9F341044640B30368DE07BF
:1011C00010D423689D075BD42368190700F19D8024
:1011D00023685A0700F1BD80A369002B40F02481E9
:1011E00000202CE08D4B9A6802F00C02042A07D0F4
:1011F0009A6802F00C02082A0BD15B68590208D5E4
:10120000864B1B689A03DCD56368002BD9D101207B
:1012100015E06368814DB3F5803F13D12B6843F42B
:1012200080332B60FFF76EFE7C4E054633689B03D0
:10123000C7D4FFF767FE401B6428F7D9032002B02C
:10124000BDE8F081B3F5A02F04D12B6843F48023CF
:101250002B60E3E72A6822F480322A602A6822F4AD
:1012600080222A60002BDDD1FFF74CFE06462B685A
:101270009F03A6D5FFF746FE801B6428F7D9DDE75C
:10128000664B9A6812F00C0F07D09A6802F00C02B5
:10129000082A11D15B685D020ED4604A1368990771
:1012A00002D5E368012BB2D11368216923F0F8035A
:1012B00043EAC103136087E7E268594BB2B10122E8
:1012C0001A60FFF71FFE554D06462B689B0707D592
:1012D0002B68226923F0F80343EAC2032B6073E70B
:1012E000FFF710FE801B0228EFD9A7E71A60FFF76F
:1012F00009FE4A4E054633689F077FF565AFFFF745
:1013000001FE401B0228F6D998E76269444B82B17E
:101310000122C3F8802EFFF7F5FD404E0546736F9E
:101320009B073FF555AFFFF7EDFD401B0228F6D9AF
:1013300084E7C3F8802EFFF7E5FD384E0546736F4E
:101340009F077FF545AFFFF7DDFD401B0228F6D96B
:1013500074E7324B1A6C12F0805228D101921A6C49
:1013600042F080521A641B6C03F080530193019B7E
:1013700001272C4D2B68D8051BD5A368274D012BC1
:1013800027D12B6F43F001032B67FFF7BBFD234EE3
:10139000054641F28838336F9A0739D5002F3FF45C
:1013A0001BAF1E4A136C23F08053136414E700270D
:1013B000DFE72B6843F480732B60FFF7A3FD06463D
:1013C0002B68D905D9D4FFF79DFD801B0228F7D9DA
:1013D00034E7052B04D12B6F43F004032B67D0E7D0
:1013E0002A6F22F001022A672A6F22F004022A677C
:1013F000002BCAD1FFF786FD41F2883806462B6FD5
:101400009B07CBD5FFF77EFD801B4045F7D915E73D
:10141000FFF778FD401B4045BDD90FE7003802407B
:101420000000474200700040374DAA6802F00C02ED
:10143000082A3ED0022B354B4FF000021A662BD102
:10144000FFF760FD06462B6899011FD4D4E90732E7
:101450001343626A43EA8213E26A43EA0263A26ABE
:101460005208013A43EA02436B60284B264D0122A1
:101470001A66FFF747FD04462B689A013FF5B0AEA8
:10148000FFF740FD001B0228F6D9D7E6FFF73AFD2B
:10149000801B0228D7D9D1E6FFF734FD04462B681C
:1014A0009B017FF59DAEFFF72DFD001B0228F6D9AD
:1014B000C4E6012B3FF4ABAE6B68E26903F4800134
:1014C00091427FF4A4AE216A03F03F028A427FF486
:1014D0009EAE616A47F6C0721A40B2EB811F7FF47C
:1014E00096AEA26A520803F44031013AB1EB024FC2
:1014F0007FF48DAEE26A03F07063B3EB026F14BF4A
:10150000012000209BE600BF003802400000474257
:10151000134908B58B6803F00C03042B1CD0082B6F
:101520001CD14A684B68496813F4800314BF0D4806
:101530000D48C1F3881118BF002302F03F02A1FB40
:101540000001FEF795FE064B5B68C3F301430133D0
:101550005B00B0FBF3F008BD0248FCE70248FAE785
:101560000038024040787D010024F4002DE9F0416C
:101570000D46044610B90120BDE8F081434B1A68BE
:1015800002F007028A4228D321688F072DD4C807AA
:1015900040D43E4B1A6802F00702AA4265D822687E
:1015A00051076BD4130707D5394A2169936823F48F
:1015B000604343EAC1039360FFF7AAFF344B354A07
:1015C0009B68C3F30313D35CD840334B1860334B91
:1015D0001868FFF74DFC0020CEE7CAB21A701B68EE
:1015E00003F007038B42C6D1CEE7294B11F0040F5D
:1015F0001EBF9A6842F4E0529A600E0742BF9A6892
:1016000042F460429A609A68A06822F0F0020243B5
:101610009A60BCE762681E4B012A1CD11B6813F458
:10162000003FA8D01A4EB36823F003031343B360FE
:10163000FFF768FC41F288380746B368626803F038
:101640000C03B3EB820FA4D0FFF75CFCC01B40453A
:10165000F3D9032090E7911E01291B6802D813F0EB
:10166000007FDEE713F0020FDBE7EAB21A701B68B7
:1016700003F00703AB427FF47EAF90E70449E068D4
:101680008B6823F4E05303438B608BE7003C0240FC
:10169000003802401441000800000020080000202B
:1016A000044B054A9B68C3F38223D35C034A10684A
:1016B000D8407047003802400C410008000000206C
:1016C000044B054A9B68C3F34233D35C034A10685A
:1016D000D8407047003802400C410008000000204C
:1016E000036813F0050FF7B5044605D123689B077F
:1016F0002AD4002003B0F0BD424B434E00229A662C
:10170000FFF700FC054633681F0116D4D4E9012316
:101710001B0743EA8213C6F884303A4B3A4E012243
:101720009A66FFF7EFFB054633681801DED4FFF732
:10173000E9FB401B0228F7D904E0FFF7E3FB401B5D
:101740000228E0D90320D5E7002301932E4B2F4D2B
:101750001A6C42F080521A641B6C03F080530193A0
:10176000019B2B6843F480732B60FFF7CBFB06468D
:101770002B68D9051BD5244DE2682B6F13F44073F9
:101780001BD1E36803F44072B2F5407F1E4A34D1A6
:10179000916823F0704021F4F81120F44070014367
:1017A0009160116FC3F30B030B431367A1E7FFF7BE
:1017B000A9FB801B0228DBD9C4E702F440729342E4
:1017C000DFD02B6F0F4A0121C2F8401E23F4407373
:1017D0000021C2F8401E2B672B6FDA07D1D5FFF727
:1017E00091FB41F2883706462B6F9B07C9D4FFF760
:1017F00089FB801BB842F7D9A4E7916821F4F8115E
:10180000CEE700BF000047420038024000700040B1
:1018100038B50368094ADA600446FFF773FB0546EA
:101820002368DB689B0601D5002038BDFFF76AFB03
:10183000401BB0F57A7FF3D90320F6E75F7F010004
:10184000036870B5DC6814F04004054617D1DA6807
:1018500042F08002DA60FFF755FB06462B68DB6832
:101860005B0600D40CB1204670BDFFF74BFB801B1C
:10187000B0F57A7F82BF04236B770124EEE7002462
:10188000F1E70368DA6822F0800210B5DA609B683D
:101890009B06044601D5002010BDFFF7B9FF0028C4
:1018A000F9D0042363770120F6E710B50446002839
:1018B00041D0437F03F0FF0213B90277FEF7EAFF3E
:1018C000022363772368DA68D20603D5012363779E
:1018D000002010BDCA225A6253225A622046FFF7E6
:1018E000AFFF10BB236820699A6822F4E00222F05F
:1018F00040029A60626899680243606902430A4341
:101900009A60E2681A611A69A16842EA01421A61A2
:101910002046FFF7B6FF40B92368A1691A6C22F48C
:1019200080221A641A6C0A431A642368FF225A62DE
:101930000028CBD0CDE70120CBE700002DE9F3470D
:101940001F46894690460446FFF7DCFA0A9D3D444F
:101950002D1AFFF7D7FA264B1E68C6F3CB366E4317
:10196000824601962268936839EA03030CBF01237B
:101970000023434501D100202EE07B1CF3D0FFF76C
:10198000C1FAA0EB0A00A84229D323685A6822F0C2
:10199000E0025A606268B2F5827F0AD1A268B2F5AD
:1019A000004F02D0B2F5806F03D11A6822F04002D6
:1019B0001A60A26AB2F5005F07D11A6822F40052D9
:1019C0001A601A6842F400521A60012384F85130F8
:1019D000002384F85030032002B0BDE8F087019B5B
:1019E0001BB1019B013B0193BCE71D46BAE700BF59
:1019F00000000020F0B585B00B4600920E46174659
:101A0000022101220446FFF799FF054628B1636DC4
:101A100043F020036365032515E0124B1868124B51
:101A2000B0FBF3F04FF47A73584363680390B3F557
:101A3000827F0BD1009733462A4680212046FFF74C
:101A40007DFF0028E3D1284605B0F0BD039B002BA5
:101A5000F9D0039B013B039323689B681B06F5D4D5
:101A6000F1E700BF0000002000366E0110B504460B
:101A7000002855D0436A002B4ED14268B2F5827FD0
:101A800000D0C3610023A36294F8513003F0FF0239
:101A900023B984F850202046FFF79AF82168A068FF
:101AA000A269022384F851300B6823F040030B60D5
:101AB000636800F4044003F482730343E06800F4B5
:101AC00000600343206900F002000343606900F0F6
:101AD0000100034302F400700343E06900F03800A2
:101AE0000343206A00F080000343A06A00F4005022
:101AF00003430B60636A120C03F0100302F004024C
:101B00001A434A60CB6923F40063CB6100200123B0
:101B1000606584F8513010BD0023C0E90433B1E79B
:101B20000120F8E72DE9F74304460D4691461E468D
:101B3000DDF82880FFF7E6F994F851306268012B50
:101B40000746D9B20AD0B2F5827F40F0E580A3689B
:101B5000002B40F0E180042940F0DE80002D4BD0C6
:101B6000B9F1000F48D0002E46D094F85030012B28
:101B700000F0D280012384F8503094F85130C4F83A
:101B80003890042B1CBF052384F851300023636573
:101B9000C4E910332368E687E6861968A6874906F4
:101BA00058BF1968256358BF41F04001A68658BF49
:101BB0001960E168B1F5006F55D10AB1012E07D166
:101BC00035F8022BDA60E38E2563013B9BB2E38696
:101BD0000125E38E9BB28BB9E38F9BB273B93A4672
:101BE00041462046FFF706FF002800F081802023B1
:101BF0006365002384F85030012031E021688B6850
:101C00009A070DD5E38E9BB253B145B1236B33F8E0
:101C1000022BCA602363E38E013B9BB2E38600255F
:101C20008A6812F001020CD0E38F9BB24BB1A36B18
:101C3000C96823F8021BA363E38F013B9BB2E387D0
:101C40001546FFF75FF9C01B4045C2D3B8F1FF3F0F
:101C5000BFD0012384F85130002384F85030032092
:101C600003B0BDE8F0830AB1012E08D12A781A73B7
:101C7000236B01332363E38E013B9BB2E386012593
:101C80002DE0226893689B070ED5E38E9BB25BB173
:101C90004DB1236B1B781373236B01332363E38EE6
:101CA000013B9BB2E38600252268916811F0010197
:101CB0000DD0E38F9BB253B1A36BD2681A70A36BA4
:101CC0000133A363E38F013B9BB2E3870D46FFF72C
:101CD00019F9C01B404502D3B8F1FF3FB9D1E38EDB
:101CE0009BB2002BCDD1E38F9BB2002BC9D176E7FD
:101CF000A36833B901932368DA6801929B68019362
:101D0000019B012384F85130606D0023C01A84F8D0
:101D1000503018BF0120A3E70220A1E7026802F1BA
:101D20000C0353E8003F23F490730C3242E8003177
:101D300002680029F2D102F1140353E8003F23F0B6
:101D4000010302F1140C4CE800310029F3D1036BBC
:101D5000012B0BD102F10C0353E8003F23F01003D9
:101D600002F10C0C4CE800310029F3D1202380F85B
:101D700042300023036370470268C16838B51369B5
:101D800023F440530B431361054683680069D1680F
:101D9000034368690343E86921F4164121F00C010B
:101DA00003430B43D3605369A96923F440730B4386
:101DB00053611F4B9A4203D003F580639A4224D1AA
:101DC000FFF77EFCEA691921B2F5004FD5E900431F
:101DD000A0FB01011CD1DA184FF0000545EB05030B
:101DE000FEF746FA6422B0FBF2F102FB1103DB00BE
:101DF0003233B3FBF2F303F007025B0002EB011294
:101E000003F4F8731344A36038BDFFF749FCD9E726
:101E10009A009B0FFEF72CFA6422B0FBF2F102FB52
:101E200011031B013233B3FBF2F303EB0113EAE7B7
:101E300000100140F7B505460C4617461E462A68B5
:101E4000136834EA030301D1002021E0701CF7D0AD
:101E5000FFF758F8C01B86421CD3DEB12B68DA6846
:101E60005107ECD5802CEAD0402CE8D01A68120734
:101E7000E5D5002401941A6801925B680193284615
:101E8000019BFFF74BFF08236B6485F8404001205E
:101E900003B0F0BD0320FBE710B5044648B390F84B
:101EA000413003F0FF021BB980F84020FEF74CFFE1
:101EB0002268242384F84130D36823F40053D3608C
:101EC0002046FFF759FF23681A6922F490421A61ED
:101ED0005A6922F02A025A61DA6842F40052DA6042
:101EE00000202023606484F8413084F8423060632D
:101EF00010BD0120FCE72DE9F843984690F84130E9
:101F0000202B04460E4617463FD100293FD0002A19
:101F10003DD021230025456480F84130FEF7F2FFD3
:101F2000A368A784B3F5805F8146E78403D1236962
:101F30000BB935461E46E38C9BB253B943464A461D
:101F400040212046FFF776FF202350B984F8413026
:101F50000AE043464A4680212046FFF76BFF28B13E
:101F6000202384F841300320BDE8F88322684EB96D
:101F700035F8023BC3F308035360E18C013989B2A1
:101F8000E184D8E716F8013BF6E70220ECE70120F0
:101F9000EAE7000008B50349034801F0A1F8034B44
:101FA000187008BDD00500200C000020D4050020CA
:101FB00000207047024B01221A701878704700BF4A
:101FC000200000200020704701207047002070474B
:101FD000024B01221A701878704700BF20000020C1
:101FE000006870470B0A017043700B0C090E837078
:101FF000C1707047024400F8011B9042FBD170474A
:102000001B4B0246186830B560B11468A04207D176
:102010005C689068844203D19C685069844212D005
:10202000002400E001241869B8B11568A84207D15E
:102030005D699068854203D198695269904206D0E3
:102040003CB1002009E0002241B1102005E001224E
:10205000FAE702290CBF0020122030BD03EB021367
:102060009889A0F58073584258410001F5E700BFF8
:10207000D80500201F4AF0B5136806689E4207D1B4
:1020800055688468A54203D195684469A54219D072
:102090001469B44218D157698568AF4214D1976961
:1020A0004569AF4210D1012302EB03108089E9B9E1
:1020B00002EB03118989013189B202EB0312581C2A
:1020C0009181F0BD0023EFE70BB18CB901231D0115
:1020D00002EB0314565185684069A06000206560DA
:1020E000A0810029E4D04FF48071E6E70028FAD0FF
:1020F0000020E6E7D80500200138012815D80C4A51
:10210000010102EB00108389B3F5807F04D1002325
:1021100083810023535006E0002BFAD0013B9BB291
:102120008381002BF5D0002070470220704700BF4C
:10213000D8050020054B1A68904204BF00221A609F
:102140001A69904204BF00221A617047D805002026
:1021500043690239023B8B4283BF4389806A01FB9A
:10216000030000207047C36A026804335289490A99
:10217000B1FBF2F1186830B1814202D3091A083379
:10218000F8E7586808447047036810B58BB11946E2
:102190000A4611F8014B202C09D93A2CF8D11978AC
:1021A000302906D101339A4203D101320260002066
:1021B00010BD4FF0FF30FBE738B50D46044618B9A7
:1021C000092000232B6038BD0368002BF8D01A7853
:1021D000002AF5D08188DA889142F1D15878FEF74B
:1021E000DDF910F00100EBD12368EBE7F8B5C37817
:1021F00004460BB90020F8BDC56A00F13007012381
:1022000040782A463946FEF7E0F990B9236AA26978
:10221000E070EB1A9342EDD2A678012EEAD9A369B9
:1022200060781D442A4601233946FEF7CEF9013E67
:10223000F3E70120DFE701380A4411F8013B00F819
:10224000013F9142F9D17047C2F307238A76CB76DA
:102250000378032B01BF120C0A75120A4A757047E6
:1022600038B5C36A8B4205460C4610D0FFF7BEFF57
:1022700060B922466878012305F13001FEF797F92D
:1022800000281CBF4FF0FF340120EC6238BD002055
:10229000FCE70000002310B5C3704FF0FF33C362AA
:1022A0000446FFF7DDFF034618BBB4F82E124AF6CA
:1022B000552291421FD194F83020E92A05D0226B93
:1022C0000F4902F0FF128A4217D104F16600FFF7AE
:1022D00087FE0C4A20F07F40904208D004F1820033
:1022E000FFF77EFE084BC31A18BF01235B00184698
:1022F00010BD0423FBE70323F9E70223F7E700BF40
:10230000EB0090004641540046415433F0B50023A1
:1023100085B00B600F461646FFF736FF051EC0F26C
:102320000E818A4B53F82540002C00F00A813C6056
:10233000237806F0FE066BB16078FEF72FF9C70729
:1023400008D4002E00F0D680400740F1D3800A2048
:1023500005B0F0BD0023E8B223706070FEF722F9EB
:10236000C10700F1F0800EB14207F0D400212046F1
:10237000FFF790FF022840F0C7806F4604F5FB731B
:1023800004F236213A4613F8040C10B11846FFF750
:1023900027FE10338B4242F8040BF4D1002557F886
:1023A000046B002E00F0A88031462046FFF772FF34
:1023B000012800F2A280B4F83B30B3F5007F40F072
:1023C000A980B4F8461021B904F15400FFF708FEC3
:1023D000014694F84020A161531E012BA27000F227
:1023E000998094F83D506581002D00F093806B1E1C
:1023F0002B4240F08F80B4F8417027813B0740F0BA
:102400008980B4F8430018B904F15000FFF7E8FDE3
:10241000E38F002B7ED001FB02FE03EB171CF4447C
:10242000604577D3A0EB0C00A842B0FBF5F271D366
:102430004FF6F570824271D840F6F575AA4294BF06
:10244000012502250232334406EB0C00032D6261A4
:10245000E6612362A06263D1B4F85A303B4359D19C
:1024600004F15C00FFF7BCFD920002F2FF12B1EB39
:10247000522F60624ED34FF0FF33C4E90333032D74
:102480004FF0800323712BD1B4F86030012B27D19A
:10249000711C2046FFF7E4FE10BBB4F82E22207119
:1024A0004AF655239A421BD104F13000FFF798FDFC
:1024B000274B984214D104F50570FFF791FD03F105
:1024C000FF5303F500532033984209D104F50670F9
:1024D000FFF786FD206104F50770FFF781FDE060DE
:1024E0001C4A2570138801339BB2E3802046138079
:1024F000FFF720FE00202BE703200135042D7FF499
:102500004EAF042806D101E0042801D101201FE7C5
:10251000012801D90D201BE700264CE7032591E790
:10252000002FF7D0022D03EB0E004FEA42031BBF32
:102530009B1802F001021A4602EB530295E70B20AA
:1025400006E70C2004E7032002E700BFFC0500209B
:1025500052526141F805002001292DE9F047064655
:102560000C4617466FD943698B426CD90378022B0E
:102570003ED0032B4FD0012B65D101EB5108016AEE
:1025800001EB5821FFF76CFE054630BB06F1300920
:1025900008F1010AC8F3080814F0010418BF19F87B
:1025A0000820FBB21EBF02F00F0242EA0313DBB2A7
:1025B00009F80830316A0123F37001EB5A213046E3
:1025C000FFF74EFE054640B9CAF3080A44B1C7F307
:1025D000071709F80A700123F3702846BDE8F08751
:1025E00019F80A30C7F3032723F00F031F43F0E75E
:1025F000016A01EB1421FFF733FE05460028ECD1F8
:10260000640006F1300304F4FF741A191F55C7F370
:1026100007275770DFE7016A01EBD411FFF720FEAF
:1026200005460028D9D1A40006F1300304F4FE7455
:1026300023441846FFF7D4FC014667F31B011846F4
:10264000FFF7D0FCC7E70225C7E7F8B50446FFF758
:10265000CDFD0546002842D12378032B37D12779B9
:10266000012F34D104F1300601464FF40072304698
:102670005523FFF7BFFC84F82E32AA2384F82F32AB
:1026800052234122722184F8303084F831306123A2
:1026900084F8323084F8173284F8332084F8141226
:1026A00084F8151284F81622216904F50670FFF7E4
:1026B00099FCE16804F50770FFF794FCE269607823
:1026C0000132E2623B463146FDF77FFF2571002271
:1026D00060781146FDF787FF003818BF0120F8BD6C
:1026E00003284B8B04BF8A8A43EA0243184670478B
:1026F0000129F8B506460C464ED9436999424BD29A
:102700000378022B29D0032B34D0012B44D101EBC9
:102710005105016A01EB5521FFF7A2FD10B14FF001
:10272000FF30F8BD6F1C316AC5F30805354401EB75
:102730005721304695F83050FFF792FD0028EED132
:10274000C7F30807374497F8303045EA0320E3071A
:102750004CBF0009C0F30B00E3E7016A01EB142151
:10276000FFF77EFD0028DAD1640004F4FF743444DE
:10277000208ED6E7016A01EBD411FFF771FD002826
:10278000CDD1A40006F1300004F4FE742044FFF71C
:1027900027FC20F07040C4E70120C2E7F8B5866846
:1027A0000568002304464361B6B92B78022B01D992
:1027B0006B6A83B92B890BB90220F8BD686A0022C5
:1027C000C4E906200028F7D000EB56203035E06140
:1027D00025620020F1E71E466F8932467F020026FF
:1027E000B742114603D92846FFF7B2FCE8E7206854
:1027F000FFF77EFF431C024606D00128DCD96B6937
:102800009842D9D2F61BEBE70120D6E7F8B50C4683
:10281000012C0568064611462BD96B69A34228D9BD
:102820002AB14FF0FF322846FFF796FE38B921460D
:102830003068FFF75DFF2746044608B90020F8BD61
:10284000012816D0431C16D0002239462846FFF72F
:1028500083FE0028F3D1D5E90432911E8B4205D2C4
:1028600001332B612B7943F001032B71A242DED897
:10287000E4E70220E3E70120E1E72DE9F041056804
:1028800080460F4671B9EE68EEB16B699E4228BF73
:10289000012634466B690134A34217D8012E14D1A6
:1028A000002406E02846FFF723FF0128044603D84A
:1028B00001242046BDE8F081431C30D06B6983427F
:1028C000F7D83E46E5E70126E3E70224D8F8000002
:1028D0002146FFF70DFF30B10128E9D001301ED0AD
:1028E000B442D7D1DCE74FF0FF3221462846FFF74C
:1028F00033FE90B957B9D5E90432023A9342EC60FD
:1029000010D92B7943F001032B71D2E722463946C7
:102910002846FFF721FE0028EDD00128C8D14FF04E
:10292000FF34C6E7013B2B61EBE743692DE9F04734
:1029300003F12008C36905468A468BB1B8F5001F2C
:102940000ED2C8F308070468002F4FD18169013304
:10295000C36141B92389B3EB581F47D80023EB610A
:102960000420BDE8F087B4F80A9009F1FF3919EAAC
:1029700058293BD12046FFF7BBFE0128064601D867
:102980000220EEE7421C01D10120EAE7636983429D
:1029900026D8BAF1000FE1D0A9692846FFF76DFFEC
:1029A0000646002835D00128EAD0431CECD020464A
:1029B000FFF71CFC01460028E6D104F130004FF47B
:1029C0000072FFF717FB31462046FFF7C1FB4FF0BF
:1029D000010A6389E06299450FD3A0EB0900E06228
:1029E000AE6131462046FFF7B3FBE86130343C442A
:1029F000C5F814802C620020B3E784F803A02046B9
:102A0000FFF7F4FB0028BFD1E06A09F101090130AA
:102A1000DFE70720A5E700002DE9F84306688146B7
:102A20000C4611F8013B2F2BFAD05C2BF8D0002379
:102A3000C9F8083023781F2B5DD9564F09F12405BA
:102A40000B2228462021FFF7D5FAC4F1020804F131
:102A5000FF3C0022082008EB0C011CF8013F202B52
:102A600008D92F2B01D05C2B4FD1605C2F284AD086
:102A70005C2848D00C44002A57D099F82420D9F873
:102A80000080E52A04BF052289F82420202B8CBF72
:102A9000002301239B0089F82F304846FFF77EFE74
:102AA000002865D1D9F81C104046FFF7D9FB002853
:102AB00048D1D9F820301A78002A61D0DA7A02F0A9
:102AC0003F0289F80620D87A10F008000CD103F1F3
:102AD0000B0C294613F8012B11F801EB6345A2EB0F
:102AE0000E022DD0002AF5D000214846FFF71DFF29
:102AF0000028D7D026E0802389F82F304846BDE84B
:102B0000F843FFF74BBE0131AFE72E2B3CD090428C
:102B10000BD9190648BF803BDFF87CE048BFFB5C5F
:102B20001EF8011B19B18B42FAD1062026E0A3F151
:102B3000610119299CBF203BDBB2AB5401328AE70B
:102B4000002AD1D199F82F30A0B95A0716D499F894
:102B50000630DB0616D5D9F814303078C3F30803F5
:102B600006F130011944FFF7BBFDC9F8080067E71B
:102B700099F82F30042801D1590703D5BDE8F8830F
:102B80000420DFE70520F9E70B28CED008220B2030
:102B900061E700BF24410008CA40000870B506681C
:102BA0000546FFF7FBFD044678B9E9693046FFF7B3
:102BB00057FB044648B92B6A1B78E52B0AD04BB16A
:102BC00001212846FFF7B1FEEDE7042C08BF0724DA
:102BD000204670BDE9693046FFF742FB04460028F5
:102BE000F6D1286A20222146FFF704FA286A0B2230
:102BF00005F12401FFF71FFB0123F370E8E7000054
:102C000030B585B0CDE9001003A803911446FFF755
:102C1000BBFA011E19DB0E4D55F8210018B1FFF764
:102C200089FA00230370019B23B945F82130002065
:102C300005B030BD0022012C45F821301A70F6D1C4
:102C400001A96846FFF762FBF2E70B20F0E700BF3F
:102C5000FC0500202DE9F04391B090460191044617
:102C6000002800F0F08002F03F06324603A901A8D8
:102C7000FFF74CFB074600286FD1039D019904958F
:102C800004A8FFF7C9FE58B99DF93F30002B6BDB54
:102C900018F03E0F14BF0121002104A8FFF7B0F97E
:102CA00018F01C0F6CD0002860D0042855D1674B59
:102CB0001A681AB11B69002B40F0C18004A8FFF705
:102CC0006DFF002849D146F008063007DDF8308056
:102CD00033D5FFF76DF90246014608F10E00FFF704
:102CE00081F9114608F11600FFF77CF9202388F8D6
:102CF0000B3041462878FFF7F3FC00228046284637
:102D0000FFF7A2FA002201230A774A778A77CA7767
:102D1000EB70B8F1000F0ED0414604A8D5F82C9006
:102D2000FFF774FDC8B949462846FFF799FA08F13C
:102D3000FF33EB6088B946F04006EB6ADDF830807F
:102D40006362012EC4F8288094BF0021012104A8E9
:102D5000FFF790F9206100BB0220002323600746A3
:102D6000384611B0BDE8F083062099E79DF816308B
:102D700013F0110F0FD118F0040FA6D00820ECE7C4
:102D80000028EAD19DF81630DA065AD418F0020F5E
:102D9000D3D0D807D1D50720DFE728784146FFF701
:102DA0009FFCA06008F11C00FFF71AF90021EB88D6
:102DB000E06004F130084FF40072E1622560A38006
:102DC000267561752162A1614046FFF713F9B206CD
:102DD000C6D5E668002EC3D06B89A168A661B6EBA4
:102DE000432F4FEA432910D92068FFF781FC0128BF
:102DF0000146A6EB09061ED9431C1ED04E45F3D84A
:102E00000020E1610028A8D100E0E161C6F30803D9
:102E1000002BA5D02846FFF79BF900289CD000EB9B
:102E200056222262687801234146FDF7C0FB002844
:102E300096D0012091E70220E3E70120E1E712208C
:102E40008BE7042089E709278AE700BFD80500201F
:102E50002DE9F04F9A4685B000238846CAF8003025
:102E600003A904461646FFF7A7F9054668BB657D2A
:102E70005DBB237D9A0740F1B480A369F34228BF6C
:102E8000DE4304F130030093DEB1A169C1F308030E
:102E9000002B40F09380DDF80C90B9F80A70013FE8
:102EA00017EA512724D131B9A068A0B901462046BC
:102EB000FFF7E3FC04E0E36A5BB12046FFF753F958
:102EC00048B9237D43F040032375284605B0BDE88B
:102ED000F08FE169EBE7012802D102256575F4E77F
:102EE000431C01D10125F9E7A368E06103B9A060A3
:102EF00094F91430002B0DDA226A99F801000123AD
:102F000004F13001FDF761FB0028EBD1237D03F0D4
:102F10007F032375E1694846FFF71AF90028DCD0E2
:102F2000B6F5007F07EB000B35D3B9F80A1007EBB5
:102F3000562088424FEA562399F8010088BFCB1BE0
:102F40005A4641460193FDF740FB0028CAD1216A49
:102F5000019BA1EB0B0199420CD24FF4007208EBDC
:102F6000412104F13000FFF766F9227D019B02F058
:102F70007F0222755F02A369E2683B44A3619A4223
:102F80002CBFE260E360DAF800303B44B844CAF892
:102F90000030F61B78E7216AA36959450CD0E16837
:102FA000994209D999F8010001235A4604F13001E8
:102FB000FDF7FDFA002895D1C4F820B0A069009B68
:102FC000C0F30800C0F50077B74228BF3746184461
:102FD0003A464146FFF72FF9237D63F07F032375BF
:102FE000C9E7072571E72DE9F34101A90546FFF778
:102FF000E3F8044600283BD12B7D13F0400437D082
:103000001B06019F0BD52A6A7878012305F1300150
:10301000FDF7DBFA80BB2B7D03F07F032B75FEF7FA
:10302000C7FF696A80463846FFF71AF90446F8B9BF
:10303000AE6AF37A43F02003F372AA682868314637
:10304000FFF702F9E96806F11C00FEF7CBFF4146E5
:1030500006F11600FEF7C6FF0123B474F474384677
:10306000FB70FFF7F2FA2B7D23F0400304462B752B
:10307000204602B0BDE8F0810124F9E713B504460B
:10308000FFF7B1FF48B901A92046FFF795F820B92D
:103090002069FFF731F800B9206002B010BD0000D0
:1030A00030B50E4B5C7A054604F0FF00A4B95C7A9B
:1030B00018555C7A03EB840465605C7A1C442272C8
:1030C0005A7A541CE4B25C723A2330324B702F238C
:1030D0000A708B70C87030BD0120FCE7000600202C
:1030E0000022FFF7DDBF0000002310B50446C0E951
:1030F0000033C0E90433836081814366C281836108
:10310000194608225C3000F0F9F90D4B63620D4B53
:10311000A3620D4BE3620D4B23630D4B24629C4273
:1031200006D003F16802944202D0D0339C4205D10C
:1031300004F15800BDE8104000F058BA10BD00BFBF
:103140004D3300086F330008A7330008CB33000865
:103150000C060020024A0349034800F069B800BF8A
:1031600024000020893E00083400002041680C4BF8
:10317000994210B5044601D000F086FEA168094BC3
:10318000994202D0204600F07FFEE168064B99424A
:1031900004D02046BDE8104000F076BE10BD00BF50
:1031A0000C06002074060020DC06002010B50B4B36
:1031B0000B4C0C4A1A60204600220421FFF794FFB2
:1031C00004F1680001220921FFF78EFF04F1D0000D
:1031D0000222BDE810401221FFF786BF44070020FD
:1031E0000C06002055310008014800F000BA00BF6D
:1031F0004D070020014800F0FBB900BF4D0700203B
:1032000010B50446FFF7F0FF236A1BB1BDE810407C
:10321000FFF7F0BF044B2362044B1B68002BF5D172
:10322000FFF7C4FFF2E700BF6D310008440700203C
:103230002DE9F8430746884614460026D4E901954F
:10324000B9F1010905D52468002CF7D13046BDE855
:10325000F883AB89012B07D9B5F90E30013303D0C0
:1032600029463846C04706436835E9E70FB407B535
:10327000064904AB086853F8042B8168019300F0F9
:10328000DBFA03B05DF804EB04B0704730000020B7
:10329000036A70B5846805460E460BB9FFF7B0FFA8
:1032A000636EDB0705D4A389980502D4A06D00F0F6
:1032B0009EF9A389190702D52369002B35D1214630
:1032C000284600F0C5F880B34FF0FF35636EDA078B
:1032D00005D4A3899B0502D4A06D00F089F9284686
:1032E00070BD002B04DAA2699A4217DC0A2915D0B6
:1032F00023685A1C22601970A36816F8011F013B4D
:10330000A3600029EDD1002B11DA22460A212846BC
:1033100000F05FF80130D7D00A25D7E722462846CB
:1033200000F057F80130E7D1CEE7013EE4E723682B
:103330005A1C22600A221A70EEE70000024B014676
:103340001868FFF7A5BF00BF3000002010B50C467D
:10335000B1F90E1000F0FCF80028ABBF636DA38933
:103360001B1823F48053ACBF6365A38110BD2DE906
:10337000F0411F468B89DB0505460C46164605D5F0
:10338000B1F90E100223002200F0D0F8A389B4F99D
:103390000E1023F48053A38132463B462846BDE8F5
:1033A000F04100F0E7B810B50C46B1F90E1000F08E
:1033B000BDF8431CA38915BF606523F4805343F413
:1033C0008053A38118BFA38110BDB1F90E1000F086
:1033D0009DB8F8B50E461446054618B1036A0BB9F8
:1033E000FFF70EFFA369A360A3891A0701D523691C
:1033F00043B92146284600F02BF818B14FF0FF37AB
:103400003846F8BD23682269981A6369F6B2834288
:10341000374605DC2146284600F036FD0028EDD170
:10342000A368013BA36023685A1C22601E70626976
:10343000431C9A4204D0A389DB07E1D50A2EDFD1D1
:103440002146284600F020FD0028D9D0D6E700000C
:1034500038B5294B054618680C4618B1036A0BB9F4
:10346000FFF7CEFEB4F90C30190722D4DA0607D4E0
:1034700009222A6043F04003A3814FF0FF3033E07C
:10348000580712D5616B41B104F14403994202D04F
:10349000284600F0AFF800236363A38923F02403D8
:1034A000A3810023636023692360A38943F0080399
:1034B000A38123694BB9A38903F42073B3F5007F7B
:1034C00003D02146284600F02DFDB4F90C3013F04E
:1034D00001020AD00022A26062695242A2612269FE
:1034E00042B913F08000C5D138BD990758BF626951
:1034F000A260F4E70020F7E7300000200244034612
:10350000934200D1704703F8011BF9E738B5064D27
:103510000023044608462B60FDF7C4FB431C02D180
:103520002B6803B1236038BD4807002038B5074D2C
:1035300004460846114600222A601A46FDF7BCFBE5
:10354000431C02D12B6803B1236038BD480700201B
:1035500038B5074D04460846114600222A601A462F
:10356000FDF792FB431C02D12B6803B1236038BDE9
:103570004807002038B5074D04460846114600228A
:103580002A601A46FDF75EF9431C02D12B6803B18D
:10359000236038BD48070020014B1868704700BF02
:1035A0003000002070B50D4D0D4C641BA41000269A
:1035B000A64209D10B4D0C4C00F022FD641BA41057
:1035C0000026A64205D170BD55F8043B9847013648
:1035D000EEE755F8043B98470136F2E7AC410008A6
:1035E000AC410008AC410008B0410008704770478A
:1035F0007047000038B50546002941D051F8043C19
:103600000C1F002BB8BFE41800F0E0F81D4A136847
:1036100033B9636014602846BDE8384000F0DCB878
:10362000A34208D9206821188B4201BF19685B6842
:1036300009182160EDE71A465B680BB1A342FAD97D
:1036400011685018A0420BD12068014450188342E1
:103650001160E0D118685B68536008441060DAE7D5
:1036600002D90C232B60D6E7206821188B4204BFB7
:1036700019685B68636004BF091821605460CAE779
:1036800038BD00BF5407002070B50F4E0C4631689E
:10369000054611B900F0A4FC30602146284600F030
:1036A0009FFC431C03D14FF0FF34204670BDC41C67
:1036B00024F00304A042F8D0211A284600F090FC20
:1036C0000130F2D1EFE700BF500700202DE9F843A9
:1036D000CD1C25F0030508350C2D38BF0C25002D19
:1036E000064601DBA94204D90C2333600020BDE863
:1036F000F883DFF8D48000F069F8D8F800301C4671
:1037000044BB29463046FFF7BFFF431C044658D14F
:10371000D8F800402746002F43D1002C4BD0236817
:103720003946304604EB030900F05AFC814542D18A
:1037300021686D1A29463046FFF7A6FF01303AD0BE
:1037400023682B442360D8F800305A6862BBC8F85D
:1037500000700FE02268521B20D40B2A17D9611980
:10376000A342256018BF5960636808BFC8F80010FD
:1037700062514B60304600F02FF804F10B00231D1E
:1037800020F00700C21A1CBF1B1AA350AFE76268E3
:10379000A3420CBFC8F800205A60EBE723466468D8
:1037A000AEE73C467F68B6E71A465B68A342FBD1AA
:1037B00000235360DEE70C233360304600F00CF842
:1037C00094E70560D6E700BF540700200148FFF7E3
:1037D0000EBF00BF4C0700200148FFF709BF00BF24
:1037E0004C0700209368013B002B10B4936008DA6B
:1037F0009469A34201DB0A2903D15DF8044BFFF76A
:10380000E8BD1368581C1060197008465DF8044B39
:103810007047F8B506460F461446D518AC4201D19C
:10382000002007E014F8011B3A463046FFF7DAFFA4
:10383000431CF3D1F8BD00002DE9F04F0D469DB0BB
:1038400014469846064618B1036A0BB9FFF7D8FC30
:103850006B6ED90705D4AB899A0502D4A86DFFF722
:10386000C6FEAB891B0701D52B699BB9294630469B
:10387000FFF7EEFD70B16B6EDC0704D54FF0FF3043
:103880001DB0BDE8F08FAB899805F7D4A86DFFF7A0
:10389000AFFEF3E70023099320238DF82930CDF8FC
:1038A0000C803023DFF8AC818DF82A304FF001090D
:1038B00023469A4613F8012B0AB1252AF9D1BAEB0F
:1038C000040B0BD05B46224629463046FFF7A1FF8A
:1038D000013000F0A780099A5A4409929AF8003002
:1038E000002B00F09F8000234FF0FF32CDE905232D
:1038F0000AF1010A049307938DF853301A93544642
:10390000052214F8011B5348FCF762FC049AD8B94D
:10391000D10644BF20238DF85330130744BF2B2317
:103920008DF853309AF800302A2B15D0079A544658
:1039300000204FF00A0C214611F8013B303B092BC7
:103940004BD9B0B1079214E0A0EB080309FA03F3D6
:1039500013430493A246D2E7039B191D1B680391EE
:10396000002BBBBF5B4242F0020207930793B8BF34
:10397000049223782E2B0AD163782A2B32D1039B11
:103980001A1D1B68039243EAE37302340593DFF8C0
:10399000D4A0217803225046FCF71AFC38B1049BCE
:1039A000A0EB0A004022824013430134049314F830
:1039B000011B29488DF828100622FCF709FC002875
:1039C0003FD0264B1BBB039B073323F00703083371
:1039D0000393099B3B4409936AE70CFB02320C46B4
:1039E0000120A8E700230134059319464FF00A0C83
:1039F000204610F8012B303A092A03D9002BC6D0F3
:103A00000591C4E70CFB012104460123F0E703AB59
:103A100000932A46124B04A93046AFF300800746B4
:103A2000781CD6D16B6ED90705D4AB899A0502D420
:103A3000A86DFFF7DDFDAB895B063FF51FAF099869
:103A40001EE703AB00932A46054B04A9304600F05D
:103A500079F8E4E7D9400008E340000800000000DE
:103A600013380008DF4000082DE9F0471646984655
:103A70008A680B69DDF820909342B8BF1346336023
:103A800091F8432007460C460AB10133336023689E
:103A9000990642BF336802333360256815F0060586
:103AA00006D104F1190AE36832689B1AAB4226DC9E
:103AB00094F843302268003B18BF012392062BD4B0
:103AC00004F1430241463846C84701301ED02368FE
:103AD000226903F00603042B02BFE5683368ED1A80
:103AE000A3680CBF25EAE57500259342C4BF9B1A65
:103AF000ED1800261A34B5421AD1002008E001233F
:103B0000524641463846C847013003D14FF0FF3096
:103B1000BDE8F0870135C6E7E1185A1C302081F86E
:103B20004300224494F8451082F843100233C7E75B
:103B30000123224641463846C8470130E6D00136C7
:103B4000D9E700002DE9FF470F7E0C9E782F9146A4
:103B500080460C469A4601F1430207D8622F0AD8E4
:103B6000002F00F0D180582F00F0B88004F14206F9
:103B700084F842703AE0A7F16303152BF6D801A14F
:103B800051F823F0DD3B0008F13B00086D3B0008D5
:103B90006D3B00086D3B00086D3B0008F13B0008E1
:103BA0006D3B00086D3B00086D3B00086D3B000855
:103BB000EF3C00081B3C0008A93C00086D3B0008D6
:103BC0006D3B0008113D00086D3B00081B3C0008E0
:103BD0006D3B00086D3B0008B13C000833681A1DBE
:103BE0001B68326004F1420684F8423001239CE0F5
:103BF00033682068191D3160060601D51D6803E091
:103C00004506FBD5B3F90050002D03DA2D236D4294
:103C100084F8433058480A2311E0216833680806C5
:103C200053F8045B02D4490648BFADB26F2F524827
:103C3000336014BF0A230823002184F84310666808
:103C4000A660002E05DB21682E4321F004012160CF
:103C50004BD01646B5FBF3F103FB1157C75D06F8D1
:103C6000017D2F46BB420D46F4D9082B0BD12368AA
:103C7000DF0708D5236961689942DEBF302306F863
:103C8000013C06F1FF36921B2261CDF800A04B46A5
:103C900003AA21464046FFF7E7FE01304AD14FF024
:103CA000FF3004B0BDE8F087236843F020032360B1
:103CB0003248782784F84570236831681F0651F828
:103CC000045B02D45F0648BFADB23160D90744BF80
:103CD00043F0200323601DB11023ADE72648E9E738
:103CE000236823F020032360F6E71646BDE7336818
:103CF00025686169181D30602E061B6801D51960A2
:103D000002E06806FBD51980002323611646BCE754
:103D100033681A1D32601E68626800213046FCF765
:103D200057FA08B1801B606063682361002384F840
:103D30004330AAE72369324649464046D04701301E
:103D4000ADD023689B0713D4E068039B9842B8BFAB
:103D50001846A6E70123324649464046D04701307F
:103D60009DD00135E36803995B1AAB42F2DCEBE7C7
:103D7000002504F11906F5E7EA400008FB400008B9
:103D8000B1F90C202DE9F041160705460C4654D434
:103D90004B68002B02DC0B6C002B48DDE66A002E22
:103DA00045D0002312F480522F68216A2B6030D056
:103DB000626DA389590705D56368D21A636B0BB18D
:103DC000236CD21A0023E66A216A2846B047431CB6
:103DD000A38906D129681D292BD82A4ACA40D607AB
:103DE00027D500226260D9042269226004D5421CD2
:103DF00001D12B6803B96065616B2F60B9B104F123
:103E00004403994202D02846FFF7F4FB0023636382
:103E10000DE001232846B0470246501CC9D12B684B
:103E2000002BC6D01D2B01D0162B1ED12F600020D9
:103E300022E043F040031BB21BE00F69002FF6D0D5
:103E400093070E6808BF4B690F6018BF0023A6EBED
:103E500007088B60B8F1000FE9DD216AA66A4346C6
:103E60003A462846B047002808DCB4F90C3043F045
:103E70004003A3814FF0FF30BDE8F0810744A8EB79
:103E80000008E7E70100402038B50B6905460C46FD
:103E900013B90025284638BD18B1036A0BB9FFF7DE
:103EA000AFF9B4F90C30002BF3D0626ED00704D414
:103EB000990502D4A06DFFF79AFB28462146FFF72B
:103EC0005FFF636EDA070546E4D4A3899B05E1D45E
:103ED000A06DFFF78DFBDDE770B50C46B1F90E1054
:103EE000002996B015461E460DDAA38913F0800FFF
:103EF0004FF0000114BF40234FF480630020316075
:103F00002B6016B070BD6A4600F048F80028ECDB64
:103F1000019901F47041A1F50053594259414FF400
:103F20008063EBE78B89F7B59D0706460C4607D5FE
:103F300004F14703236023610123636103B0F0BDF3
:103F400001AB6A46FFF7C8FF009F05463946304679
:103F5000FFF7BCFB48B9B4F90C309A05EED423F056
:103F6000030343F00203A381E2E7A389206043F047
:103F70008003A381019BC4E904075BB1B4F90E106F
:103F8000304600F01DF828B1A38923F0030343F065
:103F90000103A381A3891D43A581CFE738B5074D50
:103FA00000230446084611462B60FCF77EFE431CA6
:103FB00002D12B6803B1236038BD00BF4807002041
:103FC00038B5064D0023044608462B60FCF772FE08
:103FD000431C02D12B6803B1236038BD4807002081
:103FE00038B5064D0023044608462B60FCF766FEF4
:103FF000431C02D12B6803B1236038BD4807002061
:10400000F8B500BFF8BC08BC9E467047F8B500BFC5
:08401000F8BC08BC9E46704795
:1040180000800008726574202D2025640D0A006850
:10402800656C6C6F322E74787400726573202D2065
:1040380025640D0A0048656C6C6F2066726F6D20F0
:1040480053544D333220535049204641544653214E
:104058000D0A0077726974652073756363657373FD
:104068000D0043756C64206E6F74206D6F756E74EF
:104078000D004966200D004E6F20436F6465204691
:104088006F756E640D0059455320436F6465204673
:104098006F756E64202D2025386C582025386C5893
:1040A8000D0A00636F6D6D616E642073656E6469DF
:1040B8006E670D00636F6D6D616E642073656E745D
:1040C8000D00222A2B2C3A3B3C3D3E3F5B5D7C7F1A
:1040D80000232D302B2000686C4C00656667454630
:1040E800470030313233343536373839414243446A
:1040F80045460030313233343536373839616263FA
:10410800646566000000000001020304000000006E
:104118000000000001020304060708094355454151
:104128004141414345454549494941414592924F9D
:104138004F4F5555594F554F9C4F9E9F41494F558D
:10414800A5A5A6A7A8A9AAABACADAEAFB0B1B2B3AE
:10415800B4414141B8B9BABBBCBDBEBFC0C1C2C3FE
:10416800C4C54141C8C9CACBCCCDCECFD1D14545B4
:104178004549494949D9DADBDCDD49DF4FE14F4F91
:104188004F4FE6E8E85555555959EEEFF0F1F2F37F
:0C419800F4F5F6F7F8F9FAFBFCFDFEFF69
:0841A4002CC0FF7F01000000A8
:0441AC00B501000851
:0441B0009101000871
:1041B4000024F4000100000010000000B51F0008F6
:1041C400D11F0008C51F0008CD1F0008C91F000823
:1041D4000100000000000000030000000C060020A5
:1041E40034000020000000000C06002074060020AB
:1041F400DC060020000000000000000000000000B9
:1042040000000000000000000000000000000000AA
:10421400000000000000000000000000000000009A
:10422400000000000000000000000000000000008A
:0400000508000DE101
:00000001FF
